{
  "contractName": "AEnvStorage",
  "abi": [
    {
      "constant": true,
      "inputs": [],
      "name": "REG",
      "outputs": [
        {
          "name": "",
          "type": "address"
        }
      ],
      "payable": false,
      "stateMutability": "view",
      "type": "function"
    },
    {
      "constant": true,
      "inputs": [],
      "name": "GOV_NAME",
      "outputs": [
        {
          "name": "",
          "type": "bytes32"
        }
      ],
      "payable": false,
      "stateMutability": "view",
      "type": "function"
    },
    {
      "constant": false,
      "inputs": [],
      "name": "renounceOwnership",
      "outputs": [],
      "payable": false,
      "stateMutability": "nonpayable",
      "type": "function"
    },
    {
      "constant": true,
      "inputs": [],
      "name": "owner",
      "outputs": [
        {
          "name": "",
          "type": "address"
        }
      ],
      "payable": false,
      "stateMutability": "view",
      "type": "function"
    },
    {
      "constant": true,
      "inputs": [],
      "name": "isOwner",
      "outputs": [
        {
          "name": "",
          "type": "bool"
        }
      ],
      "payable": false,
      "stateMutability": "view",
      "type": "function"
    },
    {
      "constant": false,
      "inputs": [
        {
          "name": "_addr",
          "type": "address"
        }
      ],
      "name": "setRegistry",
      "outputs": [],
      "payable": false,
      "stateMutability": "nonpayable",
      "type": "function"
    },
    {
      "constant": false,
      "inputs": [
        {
          "name": "newOwner",
          "type": "address"
        }
      ],
      "name": "transferOwnership",
      "outputs": [],
      "payable": false,
      "stateMutability": "nonpayable",
      "type": "function"
    },
    {
      "anonymous": false,
      "inputs": [
        {
          "indexed": true,
          "name": "_name",
          "type": "bytes32"
        },
        {
          "indexed": true,
          "name": "_type",
          "type": "uint256"
        },
        {
          "indexed": false,
          "name": "_value",
          "type": "string"
        }
      ],
      "name": "VarableAdded",
      "type": "event"
    },
    {
      "anonymous": false,
      "inputs": [
        {
          "indexed": true,
          "name": "_name",
          "type": "bytes32"
        },
        {
          "indexed": true,
          "name": "_type",
          "type": "uint256"
        },
        {
          "indexed": false,
          "name": "_value",
          "type": "string"
        }
      ],
      "name": "VarableChanged",
      "type": "event"
    },
    {
      "anonymous": false,
      "inputs": [
        {
          "indexed": true,
          "name": "previousOwner",
          "type": "address"
        },
        {
          "indexed": true,
          "name": "newOwner",
          "type": "address"
        }
      ],
      "name": "OwnershipTransferred",
      "type": "event"
    },
    {
      "constant": true,
      "inputs": [
        {
          "name": "_h",
          "type": "bytes32"
        }
      ],
      "name": "get",
      "outputs": [
        {
          "name": "varType",
          "type": "uint256"
        },
        {
          "name": "varVal",
          "type": "string"
        }
      ],
      "payable": false,
      "stateMutability": "view",
      "type": "function"
    },
    {
      "constant": true,
      "inputs": [
        {
          "name": "_h",
          "type": "bytes32"
        }
      ],
      "name": "getType",
      "outputs": [
        {
          "name": "",
          "type": "uint256"
        }
      ],
      "payable": false,
      "stateMutability": "view",
      "type": "function"
    },
    {
      "constant": true,
      "inputs": [
        {
          "name": "_h",
          "type": "bytes32"
        }
      ],
      "name": "getValue",
      "outputs": [
        {
          "name": "",
          "type": "string"
        }
      ],
      "payable": false,
      "stateMutability": "view",
      "type": "function"
    }
  ],
  "bytecode": "0x608060408190527f476f7665726e616e6365436f6e7472616374000000000000000000000000000060025560008054600160a060020a0319163317808255600160a060020a0316917f8be0079c531659141344cd1fd0a4f28419497f9722a3daafe3b4186f6b6457e0908290a361075f8061007b6000396000f3006080604052600436106100a35763ffffffff7c01000000000000000000000000000000000000000000000000000000006000350416633936311281146100a857806369843940146100d95780636c78d2cf14610166578063715018a61461018d5780637f2aeea4146101a45780638da5cb5b146101bc5780638eaa6ac0146101d15780638f32d59b14610268578063a91ee0dc14610291578063f2fde38b146102b2575b600080fd5b3480156100b457600080fd5b506100bd6102d3565b60408051600160a060020a039092168252519081900360200190f35b3480156100e557600080fd5b506100f16004356102e2565b6040805160208082528351818301528351919283929083019185019080838360005b8381101561012b578181015183820152602001610113565b50505050905090810190601f1680156101585780820380516001836020036101000a031916815260200191505b509250505060405180910390f35b34801561017257600080fd5b5061017b610404565b60408051918252519081900360200190f35b34801561019957600080fd5b506101a261040a565b005b3480156101b057600080fd5b5061017b600435610474565b3480156101c857600080fd5b506100bd610506565b3480156101dd57600080fd5b506101e9600435610515565b6040518083815260200180602001828103825283818151815260200191508051906020019080838360005b8381101561022c578181015183820152602001610214565b50505050905090810190601f1680156102595780820380516001836020036101000a031916815260200191505b50935050505060405180910390f35b34801561027457600080fd5b5061027d610644565b604080519115158252519081900360200190f35b34801561029d57600080fd5b506101a2600160a060020a0360043516610655565b3480156102be57600080fd5b506101a2600160a060020a0360043516610697565b600154600160a060020a031681565b600081815260036020526040902054606090821461036157604080517f08c379a000000000000000000000000000000000000000000000000000000000815260206004820152600960248201527f6e6f7420666f756e640000000000000000000000000000000000000000000000604482015290519081900360640190fd5b6000828152600360209081526040918290206002908101805484516000196001831615610100020190911692909204601f8101849004840283018401909452838252909290918301828280156103f85780601f106103cd576101008083540402835291602001916103f8565b820191906000526020600020905b8154815290600101906020018083116103db57829003601f168201915b50505050509050919050565b60025481565b610412610644565b151561041d57600080fd5b60008054604051600160a060020a03909116907f8be0079c531659141344cd1fd0a4f28419497f9722a3daafe3b4186f6b6457e0908390a36000805473ffffffffffffffffffffffffffffffffffffffff19169055565b60008181526003602052604081205482146104f057604080517f08c379a000000000000000000000000000000000000000000000000000000000815260206004820152600960248201527f6e6f7420666f756e640000000000000000000000000000000000000000000000604482015290519081900360640190fd5b5060009081526003602052604090206001015490565b600054600160a060020a031690565b600081815260036020526040812054606090831461059457604080517f08c379a000000000000000000000000000000000000000000000000000000000815260206004820152600960248201527f6e6f7420666f756e640000000000000000000000000000000000000000000000604482015290519081900360640190fd5b6000838152600360209081526040918290206001808201546002928301805486516000199482161561010002949094011693909304601f8101859004850283018501909552848252939192909183918301828280156106345780601f1061060957610100808354040283529160200191610634565b820191906000526020600020905b81548152906001019060200180831161061757829003601f168201915b5050505050905091509150915091565b600054600160a060020a0316331490565b61065d610644565b151561066857600080fd5b6001805473ffffffffffffffffffffffffffffffffffffffff1916600160a060020a0392909216919091179055565b61069f610644565b15156106aa57600080fd5b6106b3816106b6565b50565b600160a060020a03811615156106cb57600080fd5b60008054604051600160a060020a03808516939216917f8be0079c531659141344cd1fd0a4f28419497f9722a3daafe3b4186f6b6457e091a36000805473ffffffffffffffffffffffffffffffffffffffff1916600160a060020a03929092169190911790555600a165627a7a72305820b559a80c2c815c59ca3a81b72b39ee637dfb3e88210b7e7026be3f1af4c1f3ec0029",
  "source": "pragma solidity ^0.4.24;\n\nimport \"../GovChecker.sol\";\n\ncontract AEnvStorage is GovChecker {\n    struct Variable {\n        bytes32 _name;\n        uint256 _type;\n        string _value;\n    }\n   \n    event VarableAdded ( \n        bytes32 indexed _name,\n        uint256 indexed _type,\n        string _value\n    );\n    event VarableChanged ( \n        bytes32 indexed _name,\n        uint256 indexed _type,\n        string _value\n    );\n   \n    mapping(bytes32 => Variable) internal s;\n \n    /**\n    * @dev Add a new variable .\n    * @param _h The keccak256 hash of the variable name\n    * @param _t The type of value\n    * @param _v The value to be stored\n    */\n    function _add(bytes32 _h, uint256 _t, string _v) internal  {\n        require(s[_h]._name == \"\",\"not found\");\n        s[_h] = Variable(_h,_t,_v);\n        emit VarableAdded(_h,_t,_v);\n    }\n    /**\n    * @dev Update a new variable .\n    * @param _h The keccak256 hash of the variable name\n    * @param _t The type of value\n    * @param _v The value to be stored\n    */\n    function _change(bytes32 _h, uint256 _t, string _v) internal {\n        require(s[_h]._name == _h,\"not found\");\n        Variable storage v = s[_h];\n        v._name = _h;\n        v._type = _t;\n        v._value = _v;\n        emit VarableChanged(_h,_t,_v);\n\n    }\n    /**\n    * @dev Get the type & value stored of a string variable by the hash name\n    * @param _h The keccak256 hash of the variable name\n    */\n    function get(bytes32 _h) public view returns (uint256 varType, string varVal){\n        require(s[_h]._name == _h,\"not found\");\n        return (s[_h]._type, s[_h]._value);\n    }\n    /**\n    * @dev Get the type stored of a string variable by the hash name\n    * @param _h The keccak256 hash of the variable name\n    */\n    function getType(bytes32 _h) public view returns (uint256){\n        require(s[_h]._name == _h,\"not found\");\n        return s[_h]._type;\n    }\n    /**\n    * @dev Get the value stored of a string variable by the hash name\n    * @param _h The keccak256 hash of the variable name\n    */\n    function getValue(bytes32 _h) public view returns (string){\n        require(s[_h]._name == _h,\"not found\");\n        return s[_h]._value;\n    }\n}",
  "sourcePath": "/Users/jeong-go-eun/Desktop/metabolics/contracts/storage/AEnvStorage.sol",
  "compiler": {
    "name": "solc",
    "version": "0.4.24+commit.e67f0147.Emscripten.clang"
  },
  "schemaVersion": "2.0.1",
  "updatedAt": "2019-01-28T07:55:16.111Z"
}