{
  "contractName": "BallotStorage",
  "abi": [
    {
      "constant": true,
      "inputs": [],
      "name": "REG",
      "outputs": [
        {
          "name": "",
          "type": "address"
        }
      ],
      "payable": false,
      "stateMutability": "view",
      "type": "function"
    },
    {
      "constant": true,
      "inputs": [],
      "name": "GOV_NAME",
      "outputs": [
        {
          "name": "",
          "type": "bytes32"
        }
      ],
      "payable": false,
      "stateMutability": "view",
      "type": "function"
    },
    {
      "constant": false,
      "inputs": [],
      "name": "renounceOwnership",
      "outputs": [],
      "payable": false,
      "stateMutability": "nonpayable",
      "type": "function"
    },
    {
      "constant": true,
      "inputs": [],
      "name": "owner",
      "outputs": [
        {
          "name": "",
          "type": "address"
        }
      ],
      "payable": false,
      "stateMutability": "view",
      "type": "function"
    },
    {
      "constant": true,
      "inputs": [],
      "name": "isOwner",
      "outputs": [
        {
          "name": "",
          "type": "bool"
        }
      ],
      "payable": false,
      "stateMutability": "view",
      "type": "function"
    },
    {
      "constant": false,
      "inputs": [
        {
          "name": "_addr",
          "type": "address"
        }
      ],
      "name": "setRegistry",
      "outputs": [],
      "payable": false,
      "stateMutability": "nonpayable",
      "type": "function"
    },
    {
      "constant": false,
      "inputs": [
        {
          "name": "newOwner",
          "type": "address"
        }
      ],
      "name": "transferOwnership",
      "outputs": [],
      "payable": false,
      "stateMutability": "nonpayable",
      "type": "function"
    },
    {
      "inputs": [
        {
          "name": "_registry",
          "type": "address"
        }
      ],
      "payable": false,
      "stateMutability": "nonpayable",
      "type": "constructor"
    },
    {
      "anonymous": false,
      "inputs": [
        {
          "indexed": true,
          "name": "ballotId",
          "type": "uint256"
        },
        {
          "indexed": true,
          "name": "ballotType",
          "type": "uint256"
        },
        {
          "indexed": true,
          "name": "creator",
          "type": "address"
        }
      ],
      "name": "BallotCreated",
      "type": "event"
    },
    {
      "anonymous": false,
      "inputs": [
        {
          "indexed": true,
          "name": "voteid",
          "type": "uint256"
        },
        {
          "indexed": true,
          "name": "ballotId",
          "type": "uint256"
        },
        {
          "indexed": true,
          "name": "voter",
          "type": "address"
        },
        {
          "indexed": false,
          "name": "decision",
          "type": "uint256"
        }
      ],
      "name": "Voted",
      "type": "event"
    },
    {
      "anonymous": false,
      "inputs": [
        {
          "indexed": true,
          "name": "ballotId",
          "type": "uint256"
        },
        {
          "indexed": false,
          "name": "state",
          "type": "uint256"
        }
      ],
      "name": "BallotFinalized",
      "type": "event"
    },
    {
      "anonymous": false,
      "inputs": [
        {
          "indexed": true,
          "name": "previousOwner",
          "type": "address"
        },
        {
          "indexed": true,
          "name": "newOwner",
          "type": "address"
        }
      ],
      "name": "OwnershipTransferred",
      "type": "event"
    },
    {
      "constant": true,
      "inputs": [],
      "name": "getTime",
      "outputs": [
        {
          "name": "",
          "type": "uint256"
        }
      ],
      "payable": false,
      "stateMutability": "view",
      "type": "function"
    },
    {
      "constant": true,
      "inputs": [
        {
          "name": "_id",
          "type": "uint256"
        }
      ],
      "name": "getBallotBasic",
      "outputs": [
        {
          "name": "id",
          "type": "uint256"
        },
        {
          "name": "startTime",
          "type": "uint256"
        },
        {
          "name": "endTime",
          "type": "uint256"
        },
        {
          "name": "ballotType",
          "type": "uint256"
        },
        {
          "name": "creator",
          "type": "address"
        },
        {
          "name": "memo",
          "type": "string"
        },
        {
          "name": "totalVoters",
          "type": "uint256"
        },
        {
          "name": "powerOfAccepts",
          "type": "uint256"
        },
        {
          "name": "powerOfRejects",
          "type": "uint256"
        },
        {
          "name": "state",
          "type": "uint256"
        },
        {
          "name": "isFinalized",
          "type": "bool"
        }
      ],
      "payable": false,
      "stateMutability": "view",
      "type": "function"
    },
    {
      "constant": true,
      "inputs": [
        {
          "name": "_id",
          "type": "uint256"
        }
      ],
      "name": "getBallotMember",
      "outputs": [
        {
          "name": "id",
          "type": "uint256"
        },
        {
          "name": "oldMemeberAddress",
          "type": "address"
        },
        {
          "name": "newMemeberAddress",
          "type": "address"
        },
        {
          "name": "newNodeId",
          "type": "bytes"
        },
        {
          "name": "newNodeIp",
          "type": "string"
        },
        {
          "name": "newNodePort",
          "type": "uint256"
        }
      ],
      "payable": false,
      "stateMutability": "view",
      "type": "function"
    },
    {
      "constant": true,
      "inputs": [
        {
          "name": "_id",
          "type": "uint256"
        }
      ],
      "name": "getBallotAddress",
      "outputs": [
        {
          "name": "id",
          "type": "uint256"
        },
        {
          "name": "newGovernanceAddress",
          "type": "address"
        }
      ],
      "payable": false,
      "stateMutability": "view",
      "type": "function"
    },
    {
      "constant": true,
      "inputs": [
        {
          "name": "_id",
          "type": "uint256"
        }
      ],
      "name": "getBallotVariable",
      "outputs": [
        {
          "name": "id",
          "type": "uint256"
        },
        {
          "name": "envVariableName",
          "type": "bytes32"
        },
        {
          "name": "envVariableType",
          "type": "uint256"
        },
        {
          "name": "envVariableValue",
          "type": "string"
        }
      ],
      "payable": false,
      "stateMutability": "view",
      "type": "function"
    },
    {
      "constant": false,
      "inputs": [
        {
          "name": "_id",
          "type": "uint256"
        },
        {
          "name": "_startTime",
          "type": "uint256"
        },
        {
          "name": "_endTime",
          "type": "uint256"
        },
        {
          "name": "_ballotType",
          "type": "uint256"
        },
        {
          "name": "_creator",
          "type": "address"
        },
        {
          "name": "_memo",
          "type": "string"
        },
        {
          "name": "_oldMemeberAddress",
          "type": "address"
        },
        {
          "name": "_newMemeberAddress",
          "type": "address"
        },
        {
          "name": "_newNodeId",
          "type": "bytes"
        },
        {
          "name": "_newNodeIp",
          "type": "string"
        },
        {
          "name": "_newNodePort",
          "type": "uint256"
        }
      ],
      "name": "createBallotForMemeber",
      "outputs": [
        {
          "name": "",
          "type": "uint256"
        }
      ],
      "payable": false,
      "stateMutability": "nonpayable",
      "type": "function"
    },
    {
      "constant": false,
      "inputs": [
        {
          "name": "_id",
          "type": "uint256"
        },
        {
          "name": "_startTime",
          "type": "uint256"
        },
        {
          "name": "_endTime",
          "type": "uint256"
        },
        {
          "name": "_ballotType",
          "type": "uint256"
        },
        {
          "name": "_creator",
          "type": "address"
        },
        {
          "name": "_memo",
          "type": "string"
        },
        {
          "name": "_newGovernanceAddress",
          "type": "address"
        }
      ],
      "name": "createBallotForAddress",
      "outputs": [
        {
          "name": "",
          "type": "uint256"
        }
      ],
      "payable": false,
      "stateMutability": "nonpayable",
      "type": "function"
    },
    {
      "constant": false,
      "inputs": [
        {
          "name": "_id",
          "type": "uint256"
        },
        {
          "name": "_startTime",
          "type": "uint256"
        },
        {
          "name": "_endTime",
          "type": "uint256"
        },
        {
          "name": "_ballotType",
          "type": "uint256"
        },
        {
          "name": "_creator",
          "type": "address"
        },
        {
          "name": "_memo",
          "type": "string"
        },
        {
          "name": "_envVariableName",
          "type": "bytes32"
        },
        {
          "name": "_envVariableType",
          "type": "uint256"
        },
        {
          "name": "_envVariableValue",
          "type": "string"
        }
      ],
      "name": "createBallotForVariable",
      "outputs": [
        {
          "name": "",
          "type": "uint256"
        }
      ],
      "payable": false,
      "stateMutability": "nonpayable",
      "type": "function"
    },
    {
      "constant": false,
      "inputs": [
        {
          "name": "_voteId",
          "type": "uint256"
        },
        {
          "name": "_ballotId",
          "type": "uint256"
        },
        {
          "name": "_voter",
          "type": "address"
        },
        {
          "name": "_decision",
          "type": "uint256"
        },
        {
          "name": "_power",
          "type": "uint256"
        }
      ],
      "name": "createVote",
      "outputs": [
        {
          "name": "",
          "type": "uint256"
        }
      ],
      "payable": false,
      "stateMutability": "nonpayable",
      "type": "function"
    },
    {
      "constant": true,
      "inputs": [
        {
          "name": "_voteId",
          "type": "uint256"
        }
      ],
      "name": "getVote",
      "outputs": [
        {
          "name": "voteId",
          "type": "uint256"
        },
        {
          "name": "ballotId",
          "type": "uint256"
        },
        {
          "name": "voter",
          "type": "address"
        },
        {
          "name": "decision",
          "type": "uint256"
        },
        {
          "name": "power",
          "type": "uint256"
        },
        {
          "name": "time",
          "type": "uint256"
        }
      ],
      "payable": false,
      "stateMutability": "view",
      "type": "function"
    },
    {
      "constant": false,
      "inputs": [
        {
          "name": "_ballotId",
          "type": "uint256"
        },
        {
          "name": "_ballotState",
          "type": "uint256"
        }
      ],
      "name": "finalizeBallot",
      "outputs": [],
      "payable": false,
      "stateMutability": "nonpayable",
      "type": "function"
    },
    {
      "constant": true,
      "inputs": [
        {
          "name": "_ballotId",
          "type": "uint56"
        },
        {
          "name": "_voter",
          "type": "address"
        }
      ],
      "name": "hasAlreadyVoted",
      "outputs": [
        {
          "name": "",
          "type": "bool"
        }
      ],
      "payable": false,
      "stateMutability": "view",
      "type": "function"
    }
  ],
  "bytecode": "0x60806040527f476f7665726e616e6365436f6e747261637400000000000000000000000000006002553480156200003557600080fd5b506040516020806200279b833981016040819052905160008054600160a060020a03191633178082559192600160a060020a0392909216917f8be0079c531659141344cd1fd0a4f28419497f9722a3daafe3b4186f6b6457e0908290a3620000a681640100000000620000ad810204565b50620000ff565b620000c0640100000000620000ee810204565b1515620000cc57600080fd5b60018054600160a060020a031916600160a060020a0392909216919091179055565b600054600160a060020a0316331490565b61268c806200010f6000396000f3006080604052600436106101065763ffffffff7c010000000000000000000000000000000000000000000000000000000060003504166302b385fb811461010b578063053af2b1146101f75780630a7076ae146102c95780631d940da21461034957806339363112146103f6578063557ed1ba146104275780635a55c1f01461043c5780636c78d2cf1461048f578063715018a6146104a457806373df4e01146104bb5780637efa9ae3146105f15780638da5cb5b1461062a5780638f32d59b1461063f57806396462b9c14610668578063a91e59ba14610695578063a91ee0dc146106b0578063ced8d084146106d1578063f2fde38b146107df578063f680e55514610800575b600080fd5b34801561011757600080fd5b5061012360043561082d565b604051808c81526020018b81526020018a815260200189815260200188600160a060020a0316600160a060020a031681526020018060200187815260200186815260200185815260200184815260200183151515158152602001828103825288818151815260200191508051906020019080838360005b838110156101b257818101518382015260200161019a565b50505050905090810190601f1680156101df5780820380516001836020036101000a031916815260200191505b509c5050505050505050505050505060405180910390f35b34801561020357600080fd5b50604080516020600460a43581810135601f81018490048402850184019095528484526102b79482359460248035956044359560643595608435600160a060020a0316953695929460c494920191819084018382808284375050604080516020888301358a018035601f8101839004830284018301909452838352979a89359a8a8301359a919990985060609091019650919450908101925081908401838280828437509497506109d19650505050505050565b60408051918252519081900360200190f35b3480156102d557600080fd5b50604080516020600460a43581810135601f81018490048402850184019095528484526102b79482359460248035956044359560643595608435600160a060020a0316953695929460c494920191819084018382808284375094975050509235600160a060020a03169350610b7e92505050565b34801561035557600080fd5b50610361600435610d5a565b60405180858152602001846000191660001916815260200183815260200180602001828103825283818151815260200191508051906020019080838360005b838110156103b85781810151838201526020016103a0565b50505050905090810190601f1680156103e55780820380516001836020036101000a031916815260200191505b509550505050505060405180910390f35b34801561040257600080fd5b5061040b610e13565b60408051600160a060020a039092168252519081900360200190f35b34801561043357600080fd5b506102b7610e22565b34801561044857600080fd5b50610454600435610e27565b604080519687526020870195909552600160a060020a03909316858501526060850191909152608084015260a0830152519081900360c00190f35b34801561049b57600080fd5b506102b7610f12565b3480156104b057600080fd5b506104b9610f18565b005b3480156104c757600080fd5b506104d3600435610f75565b6040518087815260200186600160a060020a0316600160a060020a0316815260200185600160a060020a0316600160a060020a031681526020018060200180602001848152602001838103835286818151815260200191508051906020019080838360005b83811015610550578181015183820152602001610538565b50505050905090810190601f16801561057d5780820380516001836020036101000a031916815260200191505b50838103825285518152855160209182019187019080838360005b838110156105b0578181015183820152602001610598565b50505050905090810190601f1680156105dd5780820380516001836020036101000a031916815260200191505b509850505050505050505060405180910390f35b3480156105fd57600080fd5b506106096004356110db565b60408051928352600160a060020a0390911660208301528051918290030190f35b34801561063657600080fd5b5061040b611101565b34801561064b57600080fd5b50610654611110565b604080519115158252519081900360200190f35b34801561067457600080fd5b506102b7600435602435600160a060020a0360443516606435608435611121565b3480156106a157600080fd5b506104b9600435602435611496565b3480156106bc57600080fd5b506104b9600160a060020a03600435166116ea565b3480156106dd57600080fd5b50604080516020600460a43581810135601f81018490048402850184019095528484526102b79482359460248035956044359560643595608435600160a060020a0316953695929460c494920191819084018382808284375050604080516020888301358a018035601f8101839004830284018301909452838352979a8935600160a060020a039081169b8b8401359091169a9199909850606090910196509194509081019250819084018382808284375050604080516020601f89358b018035918201839004830284018301909452808352979a999881019791965091820194509250829150840183828082843750949750509335945061171f9350505050565b3480156107eb57600080fd5b506104b9600160a060020a0360043516611935565b34801561080c57600080fd5b5061065466ffffffffffffff60043516600160a060020a0360243516611954565b60008060008060006060600080600080600061084761245c565b60008d8152600360208181526040928390208351610160810185528154815260018083015482850152600280840154838801529483015460608301526004830154600160a060020a0316608083015260058301805487516101009382161593909302600019011695909504601f81018590048502820185019096528581529094919360a0860193919290918301828280156109235780601f106108f857610100808354040283529160200191610923565b820191906000526020600020905b81548152906001019060200180831161090657829003601f168201915b5050505050815260200160068201548152602001600782015481526020016008820154815260200160098201548152602001600a820160009054906101000a900460ff161515151581525050905080600001519b5080602001519a508060400151995080606001519850806080015197508060a0015196508060c0015195508060e0015194508061010001519350806101200151925080610140015191505091939597999b90929496989a50565b6000806109dc6124c2565b6001546002546040805160e060020a630d2020dd0281526004810192909252513392600160a060020a031691630d2020dd9160248083019260209291908290030181600087803b158015610a2f57600080fd5b505af1158015610a43573d6000803e3d6000fd5b505050506040513d6020811015610a5957600080fd5b5051600160a060020a031614610aa7576040805160e560020a62461bcd02815260206004820152600d6024820152600080516020612641833981519152604482015290519081900360640190fd5b610ab38987878761198a565b1515610b09576040805160e560020a62461bcd02815260206004820152601160248201527f496e76616c696420506172616d65746572000000000000000000000000000000604482015290519081900360640190fd5b610b178c8c8c8c8c8c611b5a565b808252602080830188815260408085018981526060860189815260008681526006865292909220865181559251600184015551600283015551805193955084939192610b6b926003850192909101906124e8565b50929d9c50505050505050505050505050565b600080610b89612566565b6001546002546040805160e060020a630d2020dd0281526004810192909252513392600160a060020a031691630d2020dd9160248083019260209291908290030181600087803b158015610bdc57600080fd5b505af1158015610bf0573d6000803e3d6000fd5b505050506040513d6020811015610c0657600080fd5b5051600160a060020a031614610c54576040805160e560020a62461bcd02815260206004820152600d6024820152600080516020612641833981519152604482015290519081900360640190fd5b60048714610c9a576040805160e560020a62461bcd0281526020600482015260136024820152600080516020612621833981519152604482015290519081900360640190fd5b600160a060020a0384161515610cfa576040805160e560020a62461bcd02815260206004820152601160248201527f496e76616c696420506172616d65746572000000000000000000000000000000604482015290519081900360640190fd5b610d088a8a8a8a8a8a611b5a565b808252600160a060020a0394851660208084019182526000838152600590915260409020925183555160019092018054600160a060020a03191692909516919091179093555090979650505050505050565b600081815260066020908152604091829020805460018083015460028085015460038601805489519581161561010002600019011692909204601f810188900488028501880190985287845293969195939460609490939290830182828015610e045780601f10610dd957610100808354040283529160200191610e04565b820191906000526020600020905b815481529060010190602001808311610de757829003601f168201915b50505050509150509193509193565b600154600160a060020a031681565b425b90565b600080600080600080610e3861257d565b6000888152600760205260409020548814610e9d576040805160e560020a62461bcd02815260206004820152601260248201527f6e6f74206578697374656420766f746549640000000000000000000000000000604482015290519081900360640190fd5b5050506000948552505060076020908152604093849020845160c081018652815480825260018301549382018490526002830154600160a060020a031696820187905260038301546060830181905260048401546080840181905260059094015460a090930183905290979396955093509091565b60025481565b610f20611110565b1515610f2b57600080fd5b60008054604051600160a060020a03909116907f8be0079c531659141344cd1fd0a4f28419497f9722a3daafe3b4186f6b6457e0908390a360008054600160a060020a0319169055565b600081815260046020908152604080832080546001808301546002808501546003860180548851601f600019978316156101000297909701909116939093049485018990048902830189019097528382529397600160a060020a039283169794909216956060958695939490938301828280156110335780601f1061100857610100808354040283529160200191611033565b820191906000526020600020905b81548152906001019060200180831161101657829003601f168201915b5050505060048301805460408051602060026001851615610100026000190190941693909304601f81018490048402820184019092528181529498509192508301828280156110c35780601f10611098576101008083540402835291602001916110c3565b820191906000526020600020905b8154815290600101906020018083116110a657829003601f168201915b50505050509250806005015491505091939550919395565b600090815260056020526040902080546001909101549091600160a060020a0390911690565b600054600160a060020a031690565b600054600160a060020a0316331490565b6001546002546040805160e060020a630d2020dd0281526004810192909252516000923392600160a060020a0390911691630d2020dd9160248082019260209290919082900301818887803b15801561117957600080fd5b505af115801561118d573d6000803e3d6000fd5b505050506040513d60208110156111a357600080fd5b5051600160a060020a0316146111f1576040805160e560020a62461bcd02815260206004820152600d6024820152600080516020612641833981519152604482015290519081900360640190fd5b6001831480611201575060028311155b1515611257576040805160e560020a62461bcd02815260206004820152601060248201527f496e76616c6964206465636973696f6e00000000000000000000000000000000604482015290519081900360640190fd5b60008581526003602052604090205485146112bc576040805160e560020a62461bcd02815260206004820152601260248201527f6e6f7420657869737465642042616c6c6f740000000000000000000000000000604482015290519081900360640190fd5b600086815260076020526040902054861415611322576040805160e560020a62461bcd02815260206004820152601660248201527f616c7265616479206578697374656420766f7465496400000000000000000000604482015290519081900360640190fd5b6000858152600860209081526040808320600160a060020a038816845290915290205460ff161561139d576040805160e560020a62461bcd02815260206004820152600d60248201527f616c726561647920766f74656400000000000000000000000000000000000000604482015290519081900360640190fd5b60c06040519081016040528087815260200186815260200185600160a060020a031681526020018481526020018381526020016113d8610e22565b90526000878152600760209081526040918290208351815590830151600182015590820151600282018054600160a060020a031916600160a060020a03909216919091179055606082015160038201556080820151600482015560a09091015160059091015561144a85858585611d1f565b83600160a060020a031685877f41df84b3b467b06744e40c92613c666324e7c640ce0a41ec06efdf602d367606866040518082815260200191505060405180910390a495945050505050565b6001546002546040805160e060020a630d2020dd0281526004810192909252516000923392600160a060020a0390911691630d2020dd9160248082019260209290919082900301818887803b1580156114ee57600080fd5b505af1158015611502573d6000803e3d6000fd5b505050506040513d602081101561151857600080fd5b5051600160a060020a031614611566576040805160e560020a62461bcd02815260206004820152600d6024820152600080516020612641833981519152604482015290519081900360640190fd5b60008381526003602052604090205483146115cb576040805160e560020a62461bcd02815260206004820152601260248201527f6e6f7420657869737465642042616c6c6f740000000000000000000000000000604482015290519081900360640190fd5b6000838152600360205260409020600a015460ff1615611635576040805160e560020a62461bcd02815260206004820152601160248201527f616c72656164792066696e616c697a6564000000000000000000000000000000604482015290519081900360640190fd5b60028214806116445750600382145b1515611688576040805160e560020a62461bcd0281526020600482015260136024820152600080516020612621833981519152604482015290519081900360640190fd5b5060008281526003602090815260409182902060098101849055600a8101805460ff1916600117905582518481529251909285927fdc921f027328d7238b58d77649ebcbd0c8b1c494c66ba53dfe53e0de65f6dd9f92918290030190a2505050565b6116f2611110565b15156116fd57600080fd5b60018054600160a060020a031916600160a060020a0392909216919091179055565b60008061172a6125bd565b6001546002546040805160e060020a630d2020dd0281526004810192909252513392600160a060020a031691630d2020dd9160248083019260209291908290030181600087803b15801561177d57600080fd5b505af1158015611791573d6000803e3d6000fd5b505050506040513d60208110156117a757600080fd5b5051600160a060020a0316146117f5576040805160e560020a62461bcd02815260206004820152600d6024820152600080516020612641833981519152604482015290519081900360640190fd5b6118038b8989898989611f02565b1515611859576040805160e560020a62461bcd02815260206004820152601160248201527f496e76616c696420506172616d65746572000000000000000000000000000000604482015290519081900360640190fd5b6118678e8e8e8e8e8e611b5a565b808252600160a060020a03808a1660208085019182528a83166040808701918252606087018c8152608088018c905260a088018b905260008781526004855291909120875181559351600185018054918716600160a060020a031992831617905591516002850180549190961692169190911790935591518051939550849391926118fa926003850192909101906124e8565b50608082015180516119169160048401916020909101906124e8565b5060a09190910151600590910155509c9b505050505050505050505050565b61193d611110565b151561194857600080fd5b611951816123d3565b50565b66ffffffffffffff82166000908152600860209081526040808320600160a060020a038516845290915290205460ff1692915050565b6000600585146119d2576040805160e560020a62461bcd0281526020600482015260136024820152600080516020612621833981519152604482015290519081900360640190fd5b6001831015611a51576040805160e560020a62461bcd02815260206004820152602160248201527f496e76616c696420656e7669726f6e6d656e74207661726961626c652054797060448201527f6500000000000000000000000000000000000000000000000000000000000000606482015290519081900360840190fd5b6006831115611ad0576040805160e560020a62461bcd02815260206004820152602160248201527f496e76616c696420656e7669726f6e6d656e74207661726961626c652054797060448201527f6500000000000000000000000000000000000000000000000000000000000000606482015290519081900360840190fd5b8151600010611b4f576040805160e560020a62461bcd02815260206004820152602260248201527f496e76616c696420656e7669726f6e6d656e74207661726961626c652076616c60448201527f7565000000000000000000000000000000000000000000000000000000000000606482015290519081900360840190fd5b506001949350505050565b600086815260036020526040812054871415611bc0576040805160e560020a62461bcd02815260206004820152601660248201527f616c726561647920657869737465642062616c6c6f7400000000000000000000604482015290519081900360640190fd5b6101606040519081016040528088815260200187815260200186815260200185815260200184600160a060020a0316815260200183815260200160008152602001600081526020016000815260200160016003811115611c1c57fe5b8152600060209182018190528981526003808352604091829020845181558484015160018201559184015160028301556060840151908201556080830151600482018054600160a060020a031916600160a060020a0390921691909117905560a083015180519192611c96926005850192909101906124e8565b5060c0820151600682015560e082015160078201556101008201516008820155610120820151600982015561014090910151600a909101805460ff1916911515919091179055604051600160a060020a03841690859089907fd1ba591c76ef71222e2d30b8277758713cc6eef1de29efaf98a716744ac2420b90600090a4509495945050505050565b60006001831480611d305750600283145b1515611d86576040805160e560020a62461bcd02815260206004820152601060248201527f496e76616c6964206465636973696f6e00000000000000000000000000000000604482015290519081900360640190fd5b6000858152600360205260409020548514611deb576040805160e560020a62461bcd02815260206004820152601260248201527f6e6f7420657869737465642042616c6c6f740000000000000000000000000000604482015290519081900360640190fd5b6000858152600860209081526040808320600160a060020a038816845290915290205460ff1615611e66576040805160e560020a62461bcd02815260206004820152600d60248201527f616c726561647920766f74656400000000000000000000000000000000000000604482015290519081900360640190fd5b50600084815260036020908152604080832060088352818420600160a060020a0388168552909252909120805460ff191660019081179091556006820154611eb39163ffffffff61244316565b60068201556001831415611ee0576007810154611ed6908363ffffffff61244316565b6007820155611efb565b6008810154611ef5908363ffffffff61244316565b60088201555b5050505050565b600060018710158015611f16575060038711155b1515611f5a576040805160e560020a62461bcd0281526020600482015260136024820152600080516020612621833981519152604482015290519081900360640190fd5b600287141561212b57600160a060020a0386161515611fc3576040805160e560020a62461bcd02815260206004820152601a60248201527f496e76616c6964206f6c64206d656d6265722061646472657373000000000000604482015290519081900360640190fd5b600160a060020a03851615612022576040805160e560020a62461bcd02815260206004820152601a60248201527f496e76616c6964206e6577206d656d6265722061646472657373000000000000604482015290519081900360640190fd5b835115612079576040805160e560020a62461bcd02815260206004820152601360248201527f496e76616c6964206e6577206e6f646520696400000000000000000000000000604482015290519081900360640190fd5b8251156120d0576040805160e560020a62461bcd02815260206004820152601360248201527f496e76616c6964206e6577206e6f646520495000000000000000000000000000604482015290519081900360640190fd5b8115612126576040805160e560020a62461bcd02815260206004820152601560248201527f496e76616c6964206e6577206e6f646520506f72740000000000000000000000604482015290519081900360640190fd5b6123c6565b8351604014612184576040805160e560020a62461bcd02815260206004820152601360248201527f496e76616c6964206e6577206e6f646520696400000000000000000000000000604482015290519081900360640190fd5b82516000106121dd576040805160e560020a62461bcd02815260206004820152601360248201527f496e76616c6964206e6577206e6f646520495000000000000000000000000000604482015290519081900360640190fd5b60008211612235576040805160e560020a62461bcd02815260206004820152601560248201527f496e76616c6964206e6577206e6f646520506f72740000000000000000000000604482015290519081900360640190fd5b60018714156122fd57600160a060020a0386161561229d576040805160e560020a62461bcd02815260206004820152601a60248201527f496e76616c6964206f6c64206d656d6265722061646472657373000000000000604482015290519081900360640190fd5b600160a060020a0385161515612126576040805160e560020a62461bcd02815260206004820152601a60248201527f496e76616c6964206e6577206d656d6265722061646472657373000000000000604482015290519081900360640190fd5b60038714156123c657600160a060020a0386161515612366576040805160e560020a62461bcd02815260206004820152601a60248201527f496e76616c6964206f6c64206d656d6265722061646472657373000000000000604482015290519081900360640190fd5b600160a060020a03851615156123c6576040805160e560020a62461bcd02815260206004820152601a60248201527f496e76616c6964206e6577206d656d6265722061646472657373000000000000604482015290519081900360640190fd5b5060019695505050505050565b600160a060020a03811615156123e857600080fd5b60008054604051600160a060020a03808516939216917f8be0079c531659141344cd1fd0a4f28419497f9722a3daafe3b4186f6b6457e091a360008054600160a060020a031916600160a060020a0392909216919091179055565b60008282018381101561245557600080fd5b9392505050565b61016060405190810160405280600081526020016000815260200160008152602001600081526020016000600160a060020a0316815260200160608152602001600081526020016000815260200160008152602001600081526020016000151581525090565b604080516080810182526000808252602082018190529181019190915260608082015290565b828054600181600116156101000203166002900490600052602060002090601f016020900481019282601f1061252957805160ff1916838001178555612556565b82800160010185558215612556579182015b8281111561255657825182559160200191906001019061253b565b50612562929150612606565b5090565b604080518082019091526000808252602082015290565b60c06040519081016040528060008152602001600081526020016000600160a060020a031681526020016000815260200160008152602001600081525090565b60c060405190810160405280600081526020016000600160a060020a031681526020016000600160a060020a031681526020016060815260200160608152602001600081525090565b610e2491905b80821115612562576000815560010161260c5600496e76616c69642042616c6c6f742054797065000000000000000000000000004e6f205065726d697373696f6e00000000000000000000000000000000000000a165627a7a723058201f0d3e9fb32424b868d4b0be45f09d4a6d88f569c27e743f7cecbd788ef59ad20029",
  "source": "pragma solidity ^0.4.24;\n//pragma experimental ABIEncoderV2;\nimport \"openzeppelin-solidity/contracts/math/SafeMath.sol\";\nimport \"../GovChecker.sol\";\nimport \"./EnumVariableTypes.sol\";\nimport \"./BallotEnums.sol\";\n\ncontract BallotStorage is  GovChecker, EnumVariableTypes, BallotEnums {\n    using SafeMath for uint256;\n    \n    struct BallotBasic {\n        //Ballot ID\n        uint256 id;\n        // \n        uint256 startTime;\n        //  \n        uint256 endTime;\n        //  \n        uint256 ballotType;\n        // \n        address creator;\n        //  \n        string memo;\n        //   \n        uint256 totalVoters;\n        // \n        uint256 powerOfAccepts;\n        // \n        uint256 powerOfRejects;\n        //  \n        uint256 state;\n        // \n        bool isFinalized;\n        \n    }\n\n    //For MemberAdding/MemberRemoval/MemberSwap\n    struct BallotMember {\n        uint256 id;    \n        address oldMemeberAddress;\n        address newMemeberAddress;\n        bytes newNodeId; // admin.nodeInfo.id is 512 bit public key\n        string newNodeIp;\n        uint newNodePort;\n    }\n\n    //For GovernanceChange \n    struct BallotAddress {\n        uint256 id;\n        address newGovernanceAddress;\n    }\n\n    //For EnvValChange\n    struct BallotVariable {\n    //Ballot ID\n        uint256 id; \n        bytes32 envVariableName;\n        uint256 envVariableType;\n        string envVariableValue;\n    }\n\n    struct Vote{\n        uint256  voteId;\n        uint256  ballotId;\n        address voter;\n        uint256 decision;\n        uint256 power;\n        uint256 time;\n    }\n\n    event BallotCreated(\n        uint256 indexed ballotId,\n        uint256 indexed ballotType,\n        address indexed creator\n    );\n    event Voted(\n        uint256 indexed voteid,\n        uint256 indexed ballotId,\n        address indexed voter,\n        uint256 decision       \n    );\n    event BallotFinalized(\n        uint256 indexed ballotId,\n        uint256 state\n    );\n    \n    mapping(uint=>BallotBasic) internal ballotBasicMap;\n    mapping(uint=>BallotMember) internal ballotMemberMap;\n    mapping(uint=>BallotAddress) internal ballotAddressMap;\n    mapping(uint=>BallotVariable) internal ballotVariableMap;\n    \n    mapping(uint=>Vote) internal voteMap;\n    mapping(uint=>mapping(address=>bool)) internal hasVotedMap;\n\n    address prevImp;\n\n    modifier onlyValidTime(uint256 _startTime, uint256 _endTime) {\n        require(_startTime > 0 && _endTime > 0);\n        require(_endTime > _startTime && _startTime > getTime());\n        //uint256 diffTime = _endTime.sub(_startTime);\n        // require(diffTime > minBallotDuration());\n        // require(diffTime <= maxBallotDuration());\n        _;\n    }\n    function getTime() public view returns(uint256) {\n        return now;\n    }\n    constructor(address _registry) public {\n        setRegistry(_registry);\n    }\n\n    function getBallotBasic(uint256 _id)public view returns(\n        uint256 id,\n        uint256 startTime,\n        uint256 endTime,\n        uint256 ballotType,\n        address creator,\n        string memo,\n        uint256 totalVoters,\n        uint256 powerOfAccepts,\n        uint256 powerOfRejects,\n        uint256 state,\n        bool isFinalized\n    ){\n        BallotBasic memory tBallot = ballotBasicMap[_id];\n        id = tBallot.id;\n        startTime = tBallot.startTime;\n        endTime = tBallot.endTime;\n        ballotType = tBallot.ballotType;\n        creator = tBallot.creator;\n        memo = tBallot.memo;\n        totalVoters = tBallot.totalVoters;\n        powerOfAccepts = tBallot.powerOfAccepts;\n        powerOfRejects = tBallot.powerOfRejects;\n        state = tBallot.state;\n        isFinalized = tBallot.isFinalized;\n        \n    }\n    function getBallotMember(uint256 _id)public view returns(\n        uint256 id,\n        address oldMemeberAddress,\n        address newMemeberAddress,\n        bytes newNodeId, // admin.nodeInfo.id is 512 bit public key\n        string newNodeIp,\n        uint newNodePort\n    ){\n        BallotMember storage tBallot = ballotMemberMap[_id];\n        id=tBallot.id;\n        oldMemeberAddress = tBallot.oldMemeberAddress;\n        newMemeberAddress = tBallot.newMemeberAddress;\n        newNodeId = tBallot.newNodeId;\n        newNodeIp = tBallot.newNodeIp;\n        newNodePort = tBallot.newNodePort;\n    }\n    function getBallotAddress(uint256 _id)public view returns(\n        uint256 id,\n        address newGovernanceAddress\n    ){\n        BallotAddress storage tBallot = ballotAddressMap[_id];\n        id = tBallot.id;\n        newGovernanceAddress = tBallot.newGovernanceAddress;\n    }\n    function getBallotVariable(uint256 _id)public view returns(\n        uint256 id,\n        bytes32 envVariableName,\n        uint256 envVariableType,\n        string envVariableValue \n    ){\n        BallotVariable storage tBallot = ballotVariableMap[_id];\n        id = tBallot.id;\n        envVariableName = tBallot.envVariableName;\n        envVariableType = tBallot.envVariableType;\n        envVariableValue = tBallot.envVariableValue;\n    }\n    function _createBallot(\n        uint256 _id,\n        uint256 _startTime,\n        uint256 _endTime,\n        uint256 _ballotType,\n        address _creator,\n        string _memo\n        \n    ) internal returns(uint256){\n        require(ballotBasicMap[_id].id != _id , \"already existed ballot\");\n        ballotBasicMap[_id] = BallotBasic( _id, _startTime, _endTime, _ballotType, _creator, _memo, 0, 0, 0, uint256(BallotStates.InProgress), false);\n        emit BallotCreated(_id, _ballotType, _creator);\n        return _id;\n    }\n    function _areMemberBallotParamValid(\n        uint256 _ballotType,\n        address _oldMemeberAddress,\n        address _newMemeberAddress,\n        bytes _newNodeId, // admin.nodeInfo.id is 512 bit public key\n        string _newNodeIp,\n        uint _newNodePort\n    ) internal pure returns(bool){\n        require((_ballotType >= uint256(BallotTypes.MemberAdd)) && (_ballotType <= uint256(BallotTypes.MemberChange)), \"Invalid Ballot Type\");\n\n        if (_ballotType == uint256(BallotTypes.MemberRemoval)){\n            require(_oldMemeberAddress != address(0),\"Invalid old member address\");\n            require(_newMemeberAddress == address(0),\"Invalid new member address\");\n            require(_newNodeId.length == 0, \"Invalid new node id\");\n            require(bytes(_newNodeIp).length == 0, \"Invalid new node IP\");\n            require(_newNodePort == 0, \"Invalid new node Port\");\n        }else {\n            require(_newNodeId.length == 64, \"Invalid new node id\");\n            require(bytes(_newNodeIp).length > 0, \"Invalid new node IP\");\n            require(_newNodePort > 0, \"Invalid new node Port\");\n            if (_ballotType == uint256(BallotTypes.MemberAdd)) {\n                require(_oldMemeberAddress == address(0),\"Invalid old member address\");\n                require(_newMemeberAddress != address(0),\"Invalid new member address\");\n            }else if (_ballotType == uint256(BallotTypes.MemberChange)){\n                require(_oldMemeberAddress != address(0),\"Invalid old member address\");\n                require(_newMemeberAddress != address(0),\"Invalid new member address\");\n            }\n        }\n\n        return true;\n    }\n    //For MemberAdding/MemberRemoval/MemberSwap\n    function createBallotForMemeber(\n        uint256 _id,\n        uint256 _startTime,\n        uint256 _endTime,\n        uint256 _ballotType,\n        address _creator,\n        string _memo,\n        address _oldMemeberAddress,\n        address _newMemeberAddress,\n        bytes _newNodeId, // admin.nodeInfo.id is 512 bit public key\n        string _newNodeIp,\n        uint _newNodePort\n    ) public onlyGov returns (uint256) {\n        require(\n            _areMemberBallotParamValid(_ballotType,_oldMemeberAddress,_newMemeberAddress,_newNodeId,_newNodeIp,_newNodePort),\n            \"Invalid Parameter\"\n        );\n        uint256 ballotId = _createBallot(_id, _startTime, _endTime, _ballotType, _creator, _memo);\n        BallotMember memory newBallot;\n        newBallot.id = ballotId;\n        newBallot.oldMemeberAddress = _oldMemeberAddress;\n        newBallot.newMemeberAddress = _newMemeberAddress;\n        newBallot.newNodeId = _newNodeId;\n        newBallot.newNodeIp = _newNodeIp;\n        newBallot.newNodePort = _newNodePort;\n        ballotMemberMap[ballotId] = newBallot;\n        return ballotId;\n    }\n\n    \n    function createBallotForAddress(\n        uint256 _id,\n        uint256 _startTime,\n        uint256 _endTime,\n        uint256 _ballotType,\n        address _creator,\n        string _memo,\n        address _newGovernanceAddress\n    ) public onlyGov returns (uint256) {\n        require(_ballotType == uint256(BallotTypes.GovernanceChange), \"Invalid Ballot Type\");\n        require(_newGovernanceAddress != address(0), \"Invalid Parameter\");\n        \n        uint256 ballotId = _createBallot(_id, _startTime, _endTime, _ballotType, _creator, _memo);\n        BallotAddress memory newBallot;\n        newBallot.id = ballotId;\n        newBallot.newGovernanceAddress = _newGovernanceAddress;\n        ballotAddressMap[ballotId] = newBallot;\n        return ballotId;\n    }\n\n    function _areVariableBallotParamValid(\n        uint256 _ballotType,\n        bytes32 _envVariableName,\n        uint256 _envVariableType,\n        string _envVariableValue \n    ) internal pure returns(bool){\n        require(_ballotType == uint256(BallotTypes.EnvValChange), \"Invalid Ballot Type\");\n        require(_envVariableName.length > 0, \"Invalid environment variable name\");\n        require(_envVariableType >= uint256(VariableTypes.Int), \"Invalid environment variable Type\");\n        require(_envVariableType <= uint256(VariableTypes.String), \"Invalid environment variable Type\");\n        require(bytes(_envVariableValue).length > 0, \"Invalid environment variable value\");\n\n        return true;\n    }\n\n    function createBallotForVariable(\n        uint256 _id,\n        uint256 _startTime,\n        uint256 _endTime,\n        uint256 _ballotType,\n        address _creator,\n        string _memo,\n        bytes32 _envVariableName,\n        uint256 _envVariableType,\n        string _envVariableValue \n    ) public onlyGov returns (uint256) {\n        require(\n            _areVariableBallotParamValid(_ballotType, _envVariableName, _envVariableType, _envVariableValue),\n            \"Invalid Parameter\"\n        );\n        uint256 ballotId = _createBallot(_id, _startTime, _endTime, _ballotType, _creator, _memo);\n        BallotVariable memory newBallot;\n        newBallot.id = ballotId;\n        newBallot.envVariableName = _envVariableName;\n        newBallot.envVariableType = _envVariableType;\n        newBallot.envVariableValue = _envVariableValue;\n        ballotVariableMap[ballotId] = newBallot;\n        return ballotId;\n    }\n    function createVote(\n        uint256 _voteId,\n        uint256 _ballotId,\n        address _voter,\n        uint256 _decision,\n        uint256 _power\n    ) public onlyGov returns (uint256) {\n        //1. msg.sender member\n        //2. actionType  \n        require((_decision == uint256(DecisionTypes.Accept)) || (_decision <= uint256(DecisionTypes.Reject)), \"Invalid decision\");\n        \n        //3. ballotId    \n        require(ballotBasicMap[_ballotId].id == _ballotId, \"not existed Ballot\");\n        //4. voteId  \n        require(voteMap[_voteId].voteId != _voteId, \"already existed voteId\");\n        //5.  vote   \n        require(!hasVotedMap[_ballotId][_voter], \"already voted\");\n\n        //1. \n        voteMap[_voteId] = Vote(_voteId, _ballotId, _voter, _decision, _power, getTime());\n        \n        //2.   \n        _updateBallotForVote(_ballotId, _voter, _decision, _power);\n\n        //3. event  \n        emit Voted(_voteId,_ballotId,_voter,_decision);\n    }\n    function getVote(uint256 _voteId) public view returns (\n        uint256 voteId,\n        uint256 ballotId,\n        address voter,\n        uint256 decision,\n        uint256 power,\n        uint256 time\n    ){\n        require(voteMap[_voteId].voteId == _voteId, \"not existed voteId\");\n        Vote memory _vote = voteMap[_voteId];\n        voteId = _vote.voteId;\n        ballotId = _vote.ballotId;\n        voter = _vote.voter;\n        decision = _vote.decision;\n        power = _vote.power;\n        time = _vote.time;\n    }\n    // update ballot \n    function _updateBallotForVote(\n        uint256 _ballotId,\n        address _voter,\n        uint256 _decision,\n        uint256 _power\n    ) internal {\n        // c1. actionType  \n        require((_decision == uint256(DecisionTypes.Accept)) || (_decision == uint256(DecisionTypes.Reject)), \"Invalid decision\");\n        // c2. ballotId    \n        require(ballotBasicMap[_ballotId].id == _ballotId, \"not existed Ballot\");\n        // c3.  vote   \n        require(hasVotedMap[_ballotId][_voter] == false, \"already voted\");\n\n        //1.get ballotBasic\n        BallotBasic storage _ballot = ballotBasicMap[_ballotId];\n        //2.   \n        hasVotedMap[_ballotId][_voter] = true;\n        //3. update totalVoters\n        _ballot.totalVoters = _ballot.totalVoters.add(1);\n        //4. Update power of accept/reject\n        if (_decision == uint256(DecisionTypes.Accept)){\n            _ballot.powerOfAccepts = _ballot.powerOfAccepts.add(_power);\n        } else {\n            _ballot.powerOfRejects = _ballot.powerOfRejects.add(_power);\n        }\n    }\n    // finalize ballot info.\n    function finalizeBallot(uint256 _ballotId,uint256 _ballotState) public onlyGov{\n        require(ballotBasicMap[_ballotId].id == _ballotId, \"not existed Ballot\");\n        require(ballotBasicMap[_ballotId].isFinalized == false, \"already finalized\");\n        require((_ballotState == uint256(BallotStates.Accepted)) || (_ballotState == uint256(BallotStates.Rejected)), \"Invalid Ballot Type\");\n\n        BallotBasic storage _ballot = ballotBasicMap[_ballotId];\n        _ballot.state = _ballotState;\n        _ballot.isFinalized = true;\n        emit BallotFinalized (_ballotId,_ballotState);\n    }\n    function hasAlreadyVoted(uint56 _ballotId,address _voter) public view returns(bool){\n        return hasVotedMap[_ballotId][_voter];\n    }\n}",
  "sourcePath": "/Users/jeong-go-eun/Desktop/metabolics/contracts/storage/BallotStorage.sol",
  "compiler": {
    "name": "solc",
    "version": "0.4.24+commit.e67f0147.Emscripten.clang"
  },
  "schemaVersion": "2.0.1",
  "updatedAt": "2019-01-28T08:33:24.980Z"
}