{
  "contractName": "EnvStorageImp",
  "abi": [
    {
      "constant": true,
      "inputs": [],
      "name": "REG",
      "outputs": [
        {
          "name": "",
          "type": "address"
        }
      ],
      "payable": false,
      "stateMutability": "view",
      "type": "function"
    },
    {
      "constant": true,
      "inputs": [
        {
          "name": "_h",
          "type": "bytes32"
        }
      ],
      "name": "getValue",
      "outputs": [
        {
          "name": "",
          "type": "string"
        }
      ],
      "payable": false,
      "stateMutability": "view",
      "type": "function"
    },
    {
      "constant": true,
      "inputs": [],
      "name": "GOV_NAME",
      "outputs": [
        {
          "name": "",
          "type": "bytes32"
        }
      ],
      "payable": false,
      "stateMutability": "view",
      "type": "function"
    },
    {
      "constant": false,
      "inputs": [],
      "name": "renounceOwnership",
      "outputs": [],
      "payable": false,
      "stateMutability": "nonpayable",
      "type": "function"
    },
    {
      "constant": true,
      "inputs": [
        {
          "name": "_h",
          "type": "bytes32"
        }
      ],
      "name": "getType",
      "outputs": [
        {
          "name": "",
          "type": "uint256"
        }
      ],
      "payable": false,
      "stateMutability": "view",
      "type": "function"
    },
    {
      "constant": true,
      "inputs": [],
      "name": "owner",
      "outputs": [
        {
          "name": "",
          "type": "address"
        }
      ],
      "payable": false,
      "stateMutability": "view",
      "type": "function"
    },
    {
      "constant": true,
      "inputs": [
        {
          "name": "_h",
          "type": "bytes32"
        }
      ],
      "name": "get",
      "outputs": [
        {
          "name": "varType",
          "type": "uint256"
        },
        {
          "name": "varVal",
          "type": "string"
        }
      ],
      "payable": false,
      "stateMutability": "view",
      "type": "function"
    },
    {
      "constant": true,
      "inputs": [],
      "name": "isOwner",
      "outputs": [
        {
          "name": "",
          "type": "bool"
        }
      ],
      "payable": false,
      "stateMutability": "view",
      "type": "function"
    },
    {
      "constant": false,
      "inputs": [
        {
          "name": "_addr",
          "type": "address"
        }
      ],
      "name": "setRegistry",
      "outputs": [],
      "payable": false,
      "stateMutability": "nonpayable",
      "type": "function"
    },
    {
      "constant": false,
      "inputs": [
        {
          "name": "newOwner",
          "type": "address"
        }
      ],
      "name": "transferOwnership",
      "outputs": [],
      "payable": false,
      "stateMutability": "nonpayable",
      "type": "function"
    },
    {
      "anonymous": false,
      "inputs": [
        {
          "indexed": true,
          "name": "_name",
          "type": "bytes32"
        },
        {
          "indexed": true,
          "name": "_type",
          "type": "uint256"
        },
        {
          "indexed": false,
          "name": "_value",
          "type": "string"
        }
      ],
      "name": "VarableAdded",
      "type": "event"
    },
    {
      "anonymous": false,
      "inputs": [
        {
          "indexed": true,
          "name": "_name",
          "type": "bytes32"
        },
        {
          "indexed": true,
          "name": "_type",
          "type": "uint256"
        },
        {
          "indexed": false,
          "name": "_value",
          "type": "string"
        }
      ],
      "name": "VarableChanged",
      "type": "event"
    },
    {
      "anonymous": false,
      "inputs": [
        {
          "indexed": true,
          "name": "previousOwner",
          "type": "address"
        },
        {
          "indexed": true,
          "name": "newOwner",
          "type": "address"
        }
      ],
      "name": "OwnershipTransferred",
      "type": "event"
    },
    {
      "constant": true,
      "inputs": [],
      "name": "getBlockPer",
      "outputs": [
        {
          "name": "varType",
          "type": "uint256"
        },
        {
          "name": "varVal",
          "type": "string"
        }
      ],
      "payable": false,
      "stateMutability": "view",
      "type": "function"
    },
    {
      "constant": true,
      "inputs": [],
      "name": "getBlockPerType",
      "outputs": [
        {
          "name": "",
          "type": "uint256"
        }
      ],
      "payable": false,
      "stateMutability": "view",
      "type": "function"
    },
    {
      "constant": true,
      "inputs": [],
      "name": "getBlockPerValue",
      "outputs": [
        {
          "name": "",
          "type": "string"
        }
      ],
      "payable": false,
      "stateMutability": "view",
      "type": "function"
    },
    {
      "constant": false,
      "inputs": [
        {
          "name": "_value",
          "type": "string"
        }
      ],
      "name": "setBlockPer",
      "outputs": [],
      "payable": false,
      "stateMutability": "nonpayable",
      "type": "function"
    }
  ],
  "bytecode": "0x608060408190527f476f7665726e616e6365436f6e7472616374000000000000000000000000000060025560008054600160a060020a0319163317808255600160a060020a0316917f8be0079c531659141344cd1fd0a4f28419497f9722a3daafe3b4186f6b6457e0908290a3610dd88061007b6000396000f3006080604052600436106100cf5763ffffffff7c010000000000000000000000000000000000000000000000000000000060003504166320a6c61381146100d45780632f809ee1146100fb578063393631121461018f57806369843940146101c05780636c78d2cf1461024d578063715018a6146102625780637f2aeea414610279578063835d1b12146102915780638da5cb5b146102ea5780638eaa6ac0146102ff5780638f32d59b14610317578063a91ee0dc14610340578063b99e34f014610361578063f2fde38b14610376575b600080fd5b3480156100e057600080fd5b506100e9610397565b60408051918252519081900360200190f35b34801561010757600080fd5b506101106103db565b6040518083815260200180602001828103825283818151815260200191508051906020019080838360005b8381101561015357818101518382015260200161013b565b50505050905090810190601f1680156101805780820380516001836020036101000a031916815260200191505b50935050505060405180910390f35b34801561019b57600080fd5b506101a46103f7565b60408051600160a060020a039092168252519081900360200190f35b3480156101cc57600080fd5b506101d8600435610406565b6040805160208082528351818301528351919283929083019185019080838360005b838110156102125781810151838201526020016101fa565b50505050905090810190601f16801561023f5780820380516001836020036101000a031916815260200191505b509250505060405180910390f35b34801561025957600080fd5b506100e96104ff565b34801561026e57600080fd5b50610277610505565b005b34801561028557600080fd5b506100e960043561056f565b34801561029d57600080fd5b506040805160206004803580820135601f81018490048402850184019095528484526102779436949293602493928401919081908401838280828437509497506105d89650505050505050565b3480156102f657600080fd5b506101a461070c565b34801561030b57600080fd5b5061011060043561071b565b34801561032357600080fd5b5061032c610821565b604080519115158252519081900360200190f35b34801561034c57600080fd5b50610277600160a060020a0360043516610832565b34801561036d57600080fd5b506101d8610874565b34801561038257600080fd5b50610277600160a060020a03600435166108b2565b604080517f626c6f636b506572000000000000000000000000000000000000000000000000815290519081900360080190206000906103d59061056f565b90505b90565b600060606103e7610397565b91506103f1610874565b90509091565b600154600160a060020a031681565b600081815260036020526040902054606090821461045c576040805160e560020a62461bcd0281526020600482015260096024820152600080516020610d8d833981519152604482015290519081900360640190fd5b6000828152600360209081526040918290206002908101805484516000196001831615610100020190911692909204601f8101849004840283018401909452838252909290918301828280156104f35780601f106104c8576101008083540402835291602001916104f3565b820191906000526020600020905b8154815290600101906020018083116104d657829003601f168201915b50505050509050919050565b60025481565b61050d610821565b151561051857600080fd5b60008054604051600160a060020a03909116907f8be0079c531659141344cd1fd0a4f28419497f9722a3daafe3b4186f6b6457e0908390a36000805473ffffffffffffffffffffffffffffffffffffffff19169055565b60008181526003602052604081205482146105c2576040805160e560020a62461bcd0281526020600482015260096024820152600080516020610d8d833981519152604482015290519081900360640190fd5b5060009081526003602052604090206001015490565b600154600254604080517f0d2020dd0000000000000000000000000000000000000000000000000000000081526004810192909252513392600160a060020a031691630d2020dd9160248083019260209291908290030181600087803b15801561064157600080fd5b505af1158015610655573d6000803e3d6000fd5b505050506040513d602081101561066b57600080fd5b5051600160a060020a0316146106cb576040805160e560020a62461bcd02815260206004820152600d60248201527f4e6f205065726d697373696f6e00000000000000000000000000000000000000604482015290519081900360640190fd5b604080517f626c6f636b50657200000000000000000000000000000000000000000000000081529051908190036008019020610709906002836108ce565b50565b600054600160a060020a031690565b6000818152600360205260408120546060908314610771576040805160e560020a62461bcd0281526020600482015260096024820152600080516020610d8d833981519152604482015290519081900360640190fd5b6000838152600360209081526040918290206001808201546002928301805486516000199482161561010002949094011693909304601f8101859004850283018501909552848252939192909183918301828280156108115780601f106107e657610100808354040283529160200191610811565b820191906000526020600020905b8154815290600101906020018083116107f457829003601f168201915b5050505050905091509150915091565b600054600160a060020a0316331490565b61083a610821565b151561084557600080fd5b6001805473ffffffffffffffffffffffffffffffffffffffff1916600160a060020a0392909216919091179055565b604080517f626c6f636b506572000000000000000000000000000000000000000000000000815290519081900360080190206060906103d590610406565b6108ba610821565b15156108c557600080fd5b61070981610a0e565b6001821015610927576040805160e560020a62461bcd02815260206004820152601560248201527f496e76616c6964205661726961626c6520547970650000000000000000000000604482015290519081900360640190fd5b6006821115610980576040805160e560020a62461bcd02815260206004820152601560248201527f496e76616c6964205661726961626c6520547970650000000000000000000000604482015290519081900360640190fd5b80516000106109d9576040805160e560020a62461bcd02815260206004820152600b60248201527f656d7074792076616c7565000000000000000000000000000000000000000000604482015290519081900360640190fd5b60008381526003602052604090205415156109fe576109f9838383610a8b565b610a09565b610a09838383610bca565b505050565b600160a060020a0381161515610a2357600080fd5b60008054604051600160a060020a03808516939216917f8be0079c531659141344cd1fd0a4f28419497f9722a3daafe3b4186f6b6457e091a36000805473ffffffffffffffffffffffffffffffffffffffff1916600160a060020a0392909216919091179055565b60008381526003602052604090205415610add576040805160e560020a62461bcd0281526020600482015260096024820152600080516020610d8d833981519152604482015290519081900360640190fd5b60408051606081018252848152602080820185815282840185815260008881526003845294909420835181559051600182015592518051929392610b279260028501920190610cf4565b5050604080516020808252845181830152845186945087937f06989848fcfd6af9d79fb4c74cb1224dec4873038ea5d67f4a93935167b662179387939092839283019185019080838360005b83811015610b8b578181015183820152602001610b73565b50505050905090810190601f168015610bb85780820380516001836020036101000a031916815260200191505b509250505060405180910390a3505050565b6000838152600360205260408120548414610c1d576040805160e560020a62461bcd0281526020600482015260096024820152600080516020610d8d833981519152604482015290519081900360640190fd5b5060008381526003602090815260409091208481556001810184905582519091610c4e916002840191850190610cf4565b508284600019167f60841501cd68d1c6414ed8f47a579de24c7e2f9da7e97f10c4932196d92df402846040518080602001828103825283818151815260200191508051906020019080838360005b83811015610cb4578181015183820152602001610c9c565b50505050905090810190601f168015610ce15780820380516001836020036101000a031916815260200191505b509250505060405180910390a350505050565b828054600181600116156101000203166002900490600052602060002090601f016020900481019282601f10610d3557805160ff1916838001178555610d62565b82800160010185558215610d62579182015b82811115610d62578251825591602001919060010190610d47565b50610d6e929150610d72565b5090565b6103d891905b80821115610d6e5760008155600101610d7856006e6f7420666f756e640000000000000000000000000000000000000000000000a165627a7a723058201bf6a1b752af7885c0be4a04c3f65db9b5dd168ed695e3efe79c37c1f8edf5410029",
  "source": "pragma solidity ^0.4.24;\n\nimport \"./AEnvStorage.sol\";\nimport \"./EnumVariableTypes.sol\";\n\ncontract EnvStorageImp is AEnvStorage,EnumVariableTypes {\n    bytes32 internal constant BLOCK_PER_NAME = keccak256(\"blockPer\"); \n    uint256 internal constant BLOCK_PER_TYPE = uint256(VariableTypes.Uint);\n\n    function getBlockPer() public view returns (uint256 varType, string varVal) {\n        varType = getBlockPerType();\n        varVal = getBlockPerValue();\n    }\n    function getBlockPerType() public view returns (uint256) {\n        return getType(BLOCK_PER_NAME);\n    }\n    function getBlockPerValue() public view returns (string) {\n        return getValue(BLOCK_PER_NAME);\n    }\n    function setBlockPer(string _value) public onlyGov { \n        _set(BLOCK_PER_NAME, BLOCK_PER_TYPE, _value);\n    }\n    /**\n    * @dev set a value for a string variable.\n    * @param _h The keccak256 hash of the variable name\n    * @param _t The type of value\n    * @param _v The value to be stored\n    */\n    function _set(bytes32 _h, uint256 _t,string _v) internal {\n        require(_t >= uint256(VariableTypes.Int), \"Invalid Variable Type\");\n        require(_t <= uint256(VariableTypes.String), \"Invalid Variable Type\");\n        require(bytes(_v).length > 0, \"empty value\");\n        if(s[_h]._name == \"\") {\n            _add(_h, _t, _v);\n        }else{\n            _change(_h, _t, _v);\n        }\n    }\n}",
  "sourcePath": "/Users/jeong-go-eun/Desktop/metabolics/contracts/storage/EnvStorageImp.sol",
  "compiler": {
    "name": "solc",
    "version": "0.4.24+commit.e67f0147.Emscripten.clang"
  },
  "schemaVersion": "2.0.1",
  "updatedAt": "2019-01-28T07:55:16.120Z"
}