{
  "contractName": "EnvStorage",
  "abi": [
    {
      "constant": true,
      "inputs": [],
      "name": "REG",
      "outputs": [
        {
          "name": "",
          "type": "address"
        }
      ],
      "payable": false,
      "stateMutability": "view",
      "type": "function"
    },
    {
      "constant": true,
      "inputs": [],
      "name": "implementation",
      "outputs": [
        {
          "name": "impl",
          "type": "address"
        }
      ],
      "payable": false,
      "stateMutability": "view",
      "type": "function"
    },
    {
      "constant": true,
      "inputs": [
        {
          "name": "_h",
          "type": "bytes32"
        }
      ],
      "name": "getValue",
      "outputs": [
        {
          "name": "",
          "type": "string"
        }
      ],
      "payable": false,
      "stateMutability": "view",
      "type": "function"
    },
    {
      "constant": true,
      "inputs": [],
      "name": "GOV_NAME",
      "outputs": [
        {
          "name": "",
          "type": "bytes32"
        }
      ],
      "payable": false,
      "stateMutability": "view",
      "type": "function"
    },
    {
      "constant": false,
      "inputs": [],
      "name": "renounceOwnership",
      "outputs": [],
      "payable": false,
      "stateMutability": "nonpayable",
      "type": "function"
    },
    {
      "constant": true,
      "inputs": [
        {
          "name": "_h",
          "type": "bytes32"
        }
      ],
      "name": "getType",
      "outputs": [
        {
          "name": "",
          "type": "uint256"
        }
      ],
      "payable": false,
      "stateMutability": "view",
      "type": "function"
    },
    {
      "constant": true,
      "inputs": [],
      "name": "owner",
      "outputs": [
        {
          "name": "",
          "type": "address"
        }
      ],
      "payable": false,
      "stateMutability": "view",
      "type": "function"
    },
    {
      "constant": true,
      "inputs": [
        {
          "name": "_h",
          "type": "bytes32"
        }
      ],
      "name": "get",
      "outputs": [
        {
          "name": "varType",
          "type": "uint256"
        },
        {
          "name": "varVal",
          "type": "string"
        }
      ],
      "payable": false,
      "stateMutability": "view",
      "type": "function"
    },
    {
      "constant": true,
      "inputs": [],
      "name": "isOwner",
      "outputs": [
        {
          "name": "",
          "type": "bool"
        }
      ],
      "payable": false,
      "stateMutability": "view",
      "type": "function"
    },
    {
      "constant": false,
      "inputs": [
        {
          "name": "_addr",
          "type": "address"
        }
      ],
      "name": "setRegistry",
      "outputs": [],
      "payable": false,
      "stateMutability": "nonpayable",
      "type": "function"
    },
    {
      "constant": false,
      "inputs": [
        {
          "name": "newOwner",
          "type": "address"
        }
      ],
      "name": "transferOwnership",
      "outputs": [],
      "payable": false,
      "stateMutability": "nonpayable",
      "type": "function"
    },
    {
      "inputs": [
        {
          "name": "_registry",
          "type": "address"
        },
        {
          "name": "_implementation",
          "type": "address"
        }
      ],
      "payable": false,
      "stateMutability": "nonpayable",
      "type": "constructor"
    },
    {
      "payable": true,
      "stateMutability": "payable",
      "type": "fallback"
    },
    {
      "anonymous": false,
      "inputs": [
        {
          "indexed": true,
          "name": "_name",
          "type": "bytes32"
        },
        {
          "indexed": true,
          "name": "_type",
          "type": "uint256"
        },
        {
          "indexed": false,
          "name": "_value",
          "type": "string"
        }
      ],
      "name": "VarableAdded",
      "type": "event"
    },
    {
      "anonymous": false,
      "inputs": [
        {
          "indexed": true,
          "name": "_name",
          "type": "bytes32"
        },
        {
          "indexed": true,
          "name": "_type",
          "type": "uint256"
        },
        {
          "indexed": false,
          "name": "_value",
          "type": "string"
        }
      ],
      "name": "VarableChanged",
      "type": "event"
    },
    {
      "anonymous": false,
      "inputs": [
        {
          "indexed": true,
          "name": "previousOwner",
          "type": "address"
        },
        {
          "indexed": true,
          "name": "newOwner",
          "type": "address"
        }
      ],
      "name": "OwnershipTransferred",
      "type": "event"
    },
    {
      "anonymous": false,
      "inputs": [
        {
          "indexed": true,
          "name": "implementation",
          "type": "address"
        }
      ],
      "name": "Upgraded",
      "type": "event"
    }
  ],
  "bytecode": "0x60806040527f476f7665726e616e6365436f6e7472616374000000000000000000000000000060025534801561003457600080fd5b50604051604080610996833981016040819052815160209092015160008054600160a060020a03191633178082559192600160a060020a0392909216917f8be0079c531659141344cd1fd0a4f28419497f9722a3daafe3b4186f6b6457e0908290a36100a8826401000000006100c1810204565b6100ba816401000000006100ff810204565b505061016b565b6100d264010000000061015a810204565b15156100dd57600080fd5b60018054600160a060020a031916600160a060020a0392909216919091179055565b604080517f6f72672e6d6574616469756d2e70726f78792e696d706c656d656e746174696f81527f6e000000000000000000000000000000000000000000000000000000000000006020820152905190819003602101902055565b600054600160a060020a0316331490565b61081c8061017a6000396000f3006080604052600436106100ae5763ffffffff7c01000000000000000000000000000000000000000000000000000000006000350416633936311281146100f45780635c60da1b14610125578063698439401461013a5780636c78d2cf146101c7578063715018a6146101ee5780637f2aeea4146102055780638da5cb5b1461021d5780638eaa6ac0146102325780638f32d59b146102c9578063a91ee0dc146102f2578063f2fde38b14610313575b60006100b8610334565b9050600160a060020a03811615156100cf57600080fd5b60405136600082376000803683855af43d806000843e8180156100f0578184f35b8184fd5b34801561010057600080fd5b50610109610390565b60408051600160a060020a039092168252519081900360200190f35b34801561013157600080fd5b50610109610334565b34801561014657600080fd5b5061015260043561039f565b6040805160208082528351818301528351919283929083019185019080838360005b8381101561018c578181015183820152602001610174565b50505050905090810190601f1680156101b95780820380516001836020036101000a031916815260200191505b509250505060405180910390f35b3480156101d357600080fd5b506101dc6104c1565b60408051918252519081900360200190f35b3480156101fa57600080fd5b506102036104c7565b005b34801561021157600080fd5b506101dc600435610531565b34801561022957600080fd5b506101096105c3565b34801561023e57600080fd5b5061024a6004356105d2565b6040518083815260200180602001828103825283818151815260200191508051906020019080838360005b8381101561028d578181015183820152602001610275565b50505050905090810190601f1680156102ba5780820380516001836020036101000a031916815260200191505b50935050505060405180910390f35b3480156102d557600080fd5b506102de610701565b604080519115158252519081900360200190f35b3480156102fe57600080fd5b50610203600160a060020a0360043516610712565b34801561031f57600080fd5b50610203600160a060020a0360043516610754565b604080517f6f72672e6d6574616469756d2e70726f78792e696d706c656d656e746174696f81527f6e00000000000000000000000000000000000000000000000000000000000000602082015290519081900360210190205490565b600154600160a060020a031681565b600081815260036020526040902054606090821461041e57604080517f08c379a000000000000000000000000000000000000000000000000000000000815260206004820152600960248201527f6e6f7420666f756e640000000000000000000000000000000000000000000000604482015290519081900360640190fd5b6000828152600360209081526040918290206002908101805484516000196001831615610100020190911692909204601f8101849004840283018401909452838252909290918301828280156104b55780601f1061048a576101008083540402835291602001916104b5565b820191906000526020600020905b81548152906001019060200180831161049857829003601f168201915b50505050509050919050565b60025481565b6104cf610701565b15156104da57600080fd5b60008054604051600160a060020a03909116907f8be0079c531659141344cd1fd0a4f28419497f9722a3daafe3b4186f6b6457e0908390a36000805473ffffffffffffffffffffffffffffffffffffffff19169055565b60008181526003602052604081205482146105ad57604080517f08c379a000000000000000000000000000000000000000000000000000000000815260206004820152600960248201527f6e6f7420666f756e640000000000000000000000000000000000000000000000604482015290519081900360640190fd5b5060009081526003602052604090206001015490565b600054600160a060020a031690565b600081815260036020526040812054606090831461065157604080517f08c379a000000000000000000000000000000000000000000000000000000000815260206004820152600960248201527f6e6f7420666f756e640000000000000000000000000000000000000000000000604482015290519081900360640190fd5b6000838152600360209081526040918290206001808201546002928301805486516000199482161561010002949094011693909304601f8101859004850283018501909552848252939192909183918301828280156106f15780601f106106c6576101008083540402835291602001916106f1565b820191906000526020600020905b8154815290600101906020018083116106d457829003601f168201915b5050505050905091509150915091565b600054600160a060020a0316331490565b61071a610701565b151561072557600080fd5b6001805473ffffffffffffffffffffffffffffffffffffffff1916600160a060020a0392909216919091179055565b61075c610701565b151561076757600080fd5b61077081610773565b50565b600160a060020a038116151561078857600080fd5b60008054604051600160a060020a03808516939216917f8be0079c531659141344cd1fd0a4f28419497f9722a3daafe3b4186f6b6457e091a36000805473ffffffffffffffffffffffffffffffffffffffff1916600160a060020a03929092169190911790555600a165627a7a72305820e7701cf575fee9d94b338bdecbb30d457b17623df4af809c88d2e027b5f727030029",
  "source": "pragma solidity ^0.4.24;\n\nimport \"./AEnvStorage.sol\";\nimport \"../proxy/UpgradeabilityProxy.sol\";\n\ncontract EnvStorage is UpgradeabilityProxy, AEnvStorage {\n\n    constructor(address _registry, address _implementation) public {\n        setRegistry(_registry);\n        setImplementation(_implementation);\n    }\n}",
  "sourcePath": "/Users/jeong-go-eun/Desktop/metabolics/contracts/storage/EnvStorage.sol",
  "compiler": {
    "name": "solc",
    "version": "0.4.24+commit.e67f0147.Emscripten.clang"
  },
  "schemaVersion": "2.0.1",
  "updatedAt": "2019-01-28T07:55:16.120Z"
}