{
  "contractName": "EternalStorage",
  "abi": [
    {
      "constant": false,
      "inputs": [],
      "name": "renounceOwnership",
      "outputs": [],
      "payable": false,
      "stateMutability": "nonpayable",
      "type": "function"
    },
    {
      "constant": true,
      "inputs": [],
      "name": "owner",
      "outputs": [
        {
          "name": "",
          "type": "address"
        }
      ],
      "payable": false,
      "stateMutability": "view",
      "type": "function"
    },
    {
      "constant": true,
      "inputs": [],
      "name": "isOwner",
      "outputs": [
        {
          "name": "",
          "type": "bool"
        }
      ],
      "payable": false,
      "stateMutability": "view",
      "type": "function"
    },
    {
      "constant": false,
      "inputs": [
        {
          "name": "newOwner",
          "type": "address"
        }
      ],
      "name": "transferOwnership",
      "outputs": [],
      "payable": false,
      "stateMutability": "nonpayable",
      "type": "function"
    },
    {
      "anonymous": false,
      "inputs": [
        {
          "indexed": true,
          "name": "previousOwner",
          "type": "address"
        },
        {
          "indexed": true,
          "name": "newOwner",
          "type": "address"
        }
      ],
      "name": "OwnershipTransferred",
      "type": "event"
    },
    {
      "constant": false,
      "inputs": [
        {
          "name": "h",
          "type": "bytes32"
        },
        {
          "name": "v",
          "type": "bool"
        }
      ],
      "name": "setBoolean",
      "outputs": [],
      "payable": false,
      "stateMutability": "nonpayable",
      "type": "function"
    },
    {
      "constant": false,
      "inputs": [
        {
          "name": "h",
          "type": "bytes32"
        },
        {
          "name": "v",
          "type": "int256"
        }
      ],
      "name": "setInt",
      "outputs": [],
      "payable": false,
      "stateMutability": "nonpayable",
      "type": "function"
    },
    {
      "constant": false,
      "inputs": [
        {
          "name": "h",
          "type": "bytes32"
        },
        {
          "name": "v",
          "type": "uint256"
        }
      ],
      "name": "setUint",
      "outputs": [],
      "payable": false,
      "stateMutability": "nonpayable",
      "type": "function"
    },
    {
      "constant": false,
      "inputs": [
        {
          "name": "h",
          "type": "bytes32"
        },
        {
          "name": "v",
          "type": "address"
        }
      ],
      "name": "setAddress",
      "outputs": [],
      "payable": false,
      "stateMutability": "nonpayable",
      "type": "function"
    },
    {
      "constant": false,
      "inputs": [
        {
          "name": "h",
          "type": "bytes32"
        },
        {
          "name": "v",
          "type": "string"
        }
      ],
      "name": "setString",
      "outputs": [],
      "payable": false,
      "stateMutability": "nonpayable",
      "type": "function"
    },
    {
      "constant": false,
      "inputs": [
        {
          "name": "h",
          "type": "bytes32"
        },
        {
          "name": "v",
          "type": "bytes"
        }
      ],
      "name": "setBytes",
      "outputs": [],
      "payable": false,
      "stateMutability": "nonpayable",
      "type": "function"
    },
    {
      "constant": true,
      "inputs": [
        {
          "name": "h",
          "type": "bytes32"
        }
      ],
      "name": "getBoolean",
      "outputs": [
        {
          "name": "",
          "type": "bool"
        }
      ],
      "payable": false,
      "stateMutability": "view",
      "type": "function"
    },
    {
      "constant": true,
      "inputs": [
        {
          "name": "h",
          "type": "bytes32"
        }
      ],
      "name": "getInt",
      "outputs": [
        {
          "name": "",
          "type": "int256"
        }
      ],
      "payable": false,
      "stateMutability": "view",
      "type": "function"
    },
    {
      "constant": true,
      "inputs": [
        {
          "name": "h",
          "type": "bytes32"
        }
      ],
      "name": "getUint",
      "outputs": [
        {
          "name": "",
          "type": "uint256"
        }
      ],
      "payable": false,
      "stateMutability": "view",
      "type": "function"
    },
    {
      "constant": true,
      "inputs": [
        {
          "name": "h",
          "type": "bytes32"
        }
      ],
      "name": "getAddress",
      "outputs": [
        {
          "name": "",
          "type": "address"
        }
      ],
      "payable": false,
      "stateMutability": "view",
      "type": "function"
    },
    {
      "constant": true,
      "inputs": [
        {
          "name": "h",
          "type": "bytes32"
        }
      ],
      "name": "getString",
      "outputs": [
        {
          "name": "",
          "type": "string"
        }
      ],
      "payable": false,
      "stateMutability": "view",
      "type": "function"
    },
    {
      "constant": true,
      "inputs": [
        {
          "name": "h",
          "type": "bytes32"
        }
      ],
      "name": "getBytes",
      "outputs": [
        {
          "name": "",
          "type": "bytes"
        }
      ],
      "payable": false,
      "stateMutability": "view",
      "type": "function"
    }
  ],
  "bytecode": "0x6080604081905260008054600160a060020a0319163317808255600160a060020a0316917f8be0079c531659141344cd1fd0a4f28419497f9722a3daafe3b4186f6b6457e0908290a3610844806100576000396000f3006080604052600436106100e55763ffffffff7c010000000000000000000000000000000000000000000000000000000060003504166321f8a72181146100ea5780632e28d0841461011e5780633848207a1461017e5780633e49bed0146101aa5780636e899550146101c5578063715018a6146102235780638da5cb5b146102385780638f32d59b1461024d578063986e791a14610262578063bd02d0f5146102ef578063c031a18014610319578063ca446dd914610331578063dc97d96214610355578063e2a4853a1461036d578063f2fde38b14610388578063f8715b3e146103a9575b600080fd5b3480156100f657600080fd5b506101026004356103c6565b60408051600160a060020a039092168252519081900360200190f35b34801561012a57600080fd5b5060408051602060046024803582810135601f810185900485028601850190965285855261017c9583359536956044949193909101919081908401838280828437509497506103e19650505050505050565b005b34801561018a57600080fd5b50610196600435610418565b604080519115158252519081900360200190f35b3480156101b657600080fd5b5061017c60043560243561042d565b3480156101d157600080fd5b5060408051602060046024803582810135601f810185900485028601850190965285855261017c9583359536956044949193909101919081908401838280828437509497506104529650505050505050565b34801561022f57600080fd5b5061017c610484565b34801561024457600080fd5b506101026104ee565b34801561025957600080fd5b506101966104fe565b34801561026e57600080fd5b5061027a60043561050f565b6040805160208082528351818301528351919283929083019185019080838360005b838110156102b457818101518382015260200161029c565b50505050905090810190601f1680156102e15780820380516001836020036101000a031916815260200191505b509250505060405180910390f35b3480156102fb57600080fd5b506103076004356105b0565b60408051918252519081900360200190f35b34801561032557600080fd5b5061027a6004356105c2565b34801561033d57600080fd5b5061017c600435600160a060020a036024351661062c565b34801561036157600080fd5b5061030760043561067a565b34801561037957600080fd5b5061017c60043560243561068c565b34801561039457600080fd5b5061017c600160a060020a03600435166106b1565b3480156103b557600080fd5b5061017c60043560243515156106d0565b600090815260056020526040902054600160a060020a031690565b6103e96104fe565b15156103f457600080fd5b6000828152600660209081526040909120825161041392840190610780565b505050565b60009081526001602052604090205460ff1690565b6104356104fe565b151561044057600080fd5b60009182526002602052604090912055565b61045a6104fe565b151561046557600080fd5b6000828152600460209081526040909120825161041392840190610780565b61048c6104fe565b151561049757600080fd5b60008054604051600160a060020a03909116907f8be0079c531659141344cd1fd0a4f28419497f9722a3daafe3b4186f6b6457e0908390a36000805473ffffffffffffffffffffffffffffffffffffffff19169055565b600054600160a060020a03165b90565b600054600160a060020a0316331490565b60008181526004602090815260409182902080548351601f60026101006001851615026000190190931692909204918201849004840281018401909452808452606093928301828280156105a45780601f10610579576101008083540402835291602001916105a4565b820191906000526020600020905b81548152906001019060200180831161058757829003601f168201915b50505050509050919050565b60009081526003602052604090205490565b60008181526006602090815260409182902080548351601f60026101006001851615026000190190931692909204918201849004840281018401909452808452606093928301828280156105a45780601f10610579576101008083540402835291602001916105a4565b6106346104fe565b151561063f57600080fd5b600091825260056020526040909120805473ffffffffffffffffffffffffffffffffffffffff1916600160a060020a03909216919091179055565b60009081526002602052604090205490565b6106946104fe565b151561069f57600080fd5b60009182526003602052604090912055565b6106b96104fe565b15156106c457600080fd5b6106cd81610703565b50565b6106d86104fe565b15156106e357600080fd5b600091825260016020526040909120805460ff1916911515919091179055565b600160a060020a038116151561071857600080fd5b60008054604051600160a060020a03808516939216917f8be0079c531659141344cd1fd0a4f28419497f9722a3daafe3b4186f6b6457e091a36000805473ffffffffffffffffffffffffffffffffffffffff1916600160a060020a0392909216919091179055565b828054600181600116156101000203166002900490600052602060002090601f016020900481019282601f106107c157805160ff19168380011785556107ee565b828001600101855582156107ee579182015b828111156107ee5782518255916020019190600101906107d3565b506107fa9291506107fe565b5090565b6104fb91905b808211156107fa57600081556001016108045600a165627a7a72305820f77af6c0e93bf97080d132f0e277e0e322d9bdf90e8fab3ce11f70e642fe30310029",
  "source": "pragma solidity ^0.4.24;\n\nimport \"openzeppelin-solidity/contracts/ownership/Ownable.sol\";\n\n\n/**\n * @title EternalStorage\n * @dev An ownable contract that can be used as a storage where the variables\n * are stored in a set of mappings indexed by hash names.\n */\ncontract EternalStorage is Ownable {\n    struct Storage {\n        mapping(bytes32 => bool) _bool;\n        mapping(bytes32 => int) _int;\n        mapping(bytes32 => uint256) _uint;\n        mapping(bytes32 => string) _string;\n        mapping(bytes32 => address) _address;\n        mapping(bytes32 => bytes) _bytes;\n    }\n\n    Storage internal s;\n\n    /**\n    * @dev Allows the owner to set a value for a boolean variable.\n    * @param h The keccak256 hash of the variable name\n    * @param v The value to be stored\n    */\n    function setBoolean(bytes32 h, bool v) public onlyOwner {\n        s._bool[h] = v;\n    }\n\n    /**\n    * @dev Allows the owner to set a value for a int variable.\n    * @param h The keccak256 hash of the variable name\n    * @param v The value to be stored\n    */\n    function setInt(bytes32 h, int v) public onlyOwner {\n        s._int[h] = v;\n    }\n\n    /**\n    * @dev Allows the owner to set a value for a boolean variable.\n    * @param h The keccak256 hash of the variable name\n    * @param v The value to be stored\n    */\n    function setUint(bytes32 h, uint256 v) public onlyOwner {\n        s._uint[h] = v;\n    }\n\n    /**\n    * @dev Allows the owner to set a value for a address variable.\n    * @param h The keccak256 hash of the variable name\n    * @param v The value to be stored\n    */\n    function setAddress(bytes32 h, address v) public onlyOwner {\n        s._address[h] = v;\n    }\n\n    /**\n    * @dev Allows the owner to set a value for a string variable.\n    * @param h The keccak256 hash of the variable name\n    * @param v The value to be stored\n    */\n    function setString(bytes32 h, string v) public onlyOwner {\n        s._string[h] = v;\n    }\n\n    /**\n    * @dev Allows the owner to set a value for a bytes variable.\n    * @param h The keccak256 hash of the variable name\n    * @param v The value to be stored\n    */\n    function setBytes(bytes32 h, bytes v) public onlyOwner {\n        s._bytes[h] = v;\n    }\n\n    /**\n    * @dev Get the value stored of a boolean variable by the hash name\n    * @param h The keccak256 hash of the variable name\n    */\n    function getBoolean(bytes32 h) public view returns (bool){\n        return s._bool[h];\n    }\n\n    /**\n    * @dev Get the value stored of a int variable by the hash name\n    * @param h The keccak256 hash of the variable name\n    */\n    function getInt(bytes32 h) public view returns (int){\n        return s._int[h];\n    }\n\n    /**\n    * @dev Get the value stored of a uint variable by the hash name\n    * @param h The keccak256 hash of the variable name\n    */\n    function getUint(bytes32 h) public view returns (uint256){\n        return s._uint[h];\n    }\n\n    /**\n    * @dev Get the value stored of a address variable by the hash name\n    * @param h The keccak256 hash of the variable name\n    */\n    function getAddress(bytes32 h) public view returns (address){\n        return s._address[h];\n    }\n\n    /**\n    * @dev Get the value stored of a string variable by the hash name\n    * @param h The keccak256 hash of the variable name\n    */\n    function getString(bytes32 h) public view returns (string){\n        return s._string[h];\n    }\n\n    /**\n    * @dev Get the value stored of a bytes variable by the hash name\n    * @param h The keccak256 hash of the variable name\n    */\n    function getBytes(bytes32 h) public view returns (bytes){\n        return s._bytes[h];\n    }\n\n}",
  "sourcePath": "/Users/jeong-go-eun/Desktop/metabolics/contracts/storage/EternalStorage.sol",
  "compiler": {
    "name": "solc",
    "version": "0.4.24+commit.e67f0147.Emscripten.clang"
  },
  "schemaVersion": "2.0.1",
  "updatedAt": "2019-01-28T07:55:16.121Z"
}