{
  "contractName": "Gov",
  "abi": [
    {
      "constant": true,
      "inputs": [
        {
          "name": "",
          "type": "address"
        }
      ],
      "name": "nodeIdxFromMember",
      "outputs": [
        {
          "name": "",
          "type": "uint256"
        }
      ],
      "payable": false,
      "stateMutability": "view",
      "type": "function"
    },
    {
      "constant": true,
      "inputs": [
        {
          "name": "",
          "type": "uint256"
        }
      ],
      "name": "nodes",
      "outputs": [
        {
          "name": "enode",
          "type": "bytes"
        },
        {
          "name": "ip",
          "type": "bytes"
        },
        {
          "name": "port",
          "type": "uint256"
        }
      ],
      "payable": false,
      "stateMutability": "view",
      "type": "function"
    },
    {
      "constant": true,
      "inputs": [],
      "name": "memberLength",
      "outputs": [
        {
          "name": "",
          "type": "uint256"
        }
      ],
      "payable": false,
      "stateMutability": "view",
      "type": "function"
    },
    {
      "constant": true,
      "inputs": [],
      "name": "REG",
      "outputs": [
        {
          "name": "",
          "type": "address"
        }
      ],
      "payable": false,
      "stateMutability": "view",
      "type": "function"
    },
    {
      "constant": true,
      "inputs": [],
      "name": "implementation",
      "outputs": [
        {
          "name": "impl",
          "type": "address"
        }
      ],
      "payable": false,
      "stateMutability": "view",
      "type": "function"
    },
    {
      "constant": true,
      "inputs": [
        {
          "name": "",
          "type": "uint256"
        }
      ],
      "name": "members",
      "outputs": [
        {
          "name": "",
          "type": "address"
        }
      ],
      "payable": false,
      "stateMutability": "view",
      "type": "function"
    },
    {
      "constant": true,
      "inputs": [],
      "name": "GOV_NAME",
      "outputs": [
        {
          "name": "",
          "type": "bytes32"
        }
      ],
      "payable": false,
      "stateMutability": "view",
      "type": "function"
    },
    {
      "constant": false,
      "inputs": [],
      "name": "renounceOwnership",
      "outputs": [],
      "payable": false,
      "stateMutability": "nonpayable",
      "type": "function"
    },
    {
      "constant": true,
      "inputs": [],
      "name": "owner",
      "outputs": [
        {
          "name": "",
          "type": "address"
        }
      ],
      "payable": false,
      "stateMutability": "view",
      "type": "function"
    },
    {
      "constant": true,
      "inputs": [],
      "name": "isOwner",
      "outputs": [
        {
          "name": "",
          "type": "bool"
        }
      ],
      "payable": false,
      "stateMutability": "view",
      "type": "function"
    },
    {
      "constant": true,
      "inputs": [
        {
          "name": "",
          "type": "uint256"
        }
      ],
      "name": "nodeToMember",
      "outputs": [
        {
          "name": "",
          "type": "address"
        }
      ],
      "payable": false,
      "stateMutability": "view",
      "type": "function"
    },
    {
      "constant": false,
      "inputs": [
        {
          "name": "_addr",
          "type": "address"
        }
      ],
      "name": "setRegistry",
      "outputs": [],
      "payable": false,
      "stateMutability": "nonpayable",
      "type": "function"
    },
    {
      "constant": true,
      "inputs": [],
      "name": "nodeLength",
      "outputs": [
        {
          "name": "",
          "type": "uint256"
        }
      ],
      "payable": false,
      "stateMutability": "view",
      "type": "function"
    },
    {
      "constant": true,
      "inputs": [],
      "name": "ballotLength",
      "outputs": [
        {
          "name": "",
          "type": "uint256"
        }
      ],
      "payable": false,
      "stateMutability": "view",
      "type": "function"
    },
    {
      "constant": true,
      "inputs": [
        {
          "name": "",
          "type": "address"
        }
      ],
      "name": "memberIdx",
      "outputs": [
        {
          "name": "",
          "type": "uint256"
        }
      ],
      "payable": false,
      "stateMutability": "view",
      "type": "function"
    },
    {
      "constant": false,
      "inputs": [
        {
          "name": "newOwner",
          "type": "address"
        }
      ],
      "name": "transferOwnership",
      "outputs": [],
      "payable": false,
      "stateMutability": "nonpayable",
      "type": "function"
    },
    {
      "inputs": [],
      "payable": false,
      "stateMutability": "nonpayable",
      "type": "constructor"
    },
    {
      "payable": true,
      "stateMutability": "payable",
      "type": "fallback"
    },
    {
      "anonymous": false,
      "inputs": [
        {
          "indexed": true,
          "name": "previousOwner",
          "type": "address"
        },
        {
          "indexed": true,
          "name": "newOwner",
          "type": "address"
        }
      ],
      "name": "OwnershipTransferred",
      "type": "event"
    },
    {
      "anonymous": false,
      "inputs": [
        {
          "indexed": true,
          "name": "implementation",
          "type": "address"
        }
      ],
      "name": "Upgraded",
      "type": "event"
    },
    {
      "constant": false,
      "inputs": [
        {
          "name": "registry",
          "type": "address"
        },
        {
          "name": "implementation",
          "type": "address"
        },
        {
          "name": "lockAmount",
          "type": "uint256"
        },
        {
          "name": "enode",
          "type": "bytes"
        },
        {
          "name": "ip",
          "type": "bytes"
        },
        {
          "name": "port",
          "type": "uint256"
        }
      ],
      "name": "init",
      "outputs": [],
      "payable": false,
      "stateMutability": "nonpayable",
      "type": "function"
    }
  ],
  "bytecode": "0x60806040527f476f7665726e616e6365436f6e7472616374000000000000000000000000000060025534801561003457600080fd5b5060008054600160a060020a0319163317808255604051600160a060020a039190911691907f8be0079c531659141344cd1fd0a4f28419497f9722a3daafe3b4186f6b6457e0908290a36003805460ff1916905560006006819055600a819055600b55610d1a806100a66000396000f3006080604052600436106100f05763ffffffff7c01000000000000000000000000000000000000000000000000000000006000350416630415891281146101365780631c53c2801461016957806331fd6c6a14610266578063393631121461027b5780635c60da1b146102ac5780635daf08ca146102c15780636c78d2cf146102d9578063715018a6146102ee5780638da5cb5b146103055780638f32d59b1461031a57806393ca81e714610343578063a91ee0dc1461035b578063cabf3e511461037c578063d6f9cfce14610391578063e2d2e1da146103a6578063e4df5ea9146103c7578063f2fde38b14610476575b60006100fa610497565b9050600160a060020a038116151561011157600080fd5b60405136600082376000803683855af43d806000843e818015610132578184f35b8184fd5b34801561014257600080fd5b50610157600160a060020a03600435166104f3565b60408051918252519081900360200190f35b34801561017557600080fd5b50610181600435610505565b604051808060200180602001848152602001838103835286818151815260200191508051906020019080838360005b838110156101c85781810151838201526020016101b0565b50505050905090810190601f1680156101f55780820380516001836020036101000a031916815260200191505b50838103825285518152855160209182019187019080838360005b83811015610228578181015183820152602001610210565b50505050905090810190601f1680156102555780820380516001836020036101000a031916815260200191505b509550505050505060405180910390f35b34801561027257600080fd5b5061015761064a565b34801561028757600080fd5b50610290610650565b60408051600160a060020a039092168252519081900360200190f35b3480156102b857600080fd5b50610290610497565b3480156102cd57600080fd5b5061029060043561065f565b3480156102e557600080fd5b5061015761067a565b3480156102fa57600080fd5b50610303610680565b005b34801561031157600080fd5b506102906106ea565b34801561032657600080fd5b5061032f6106fa565b604080519115158252519081900360200190f35b34801561034f57600080fd5b5061029060043561070b565b34801561036757600080fd5b50610303600160a060020a0360043516610726565b34801561038857600080fd5b50610157610768565b34801561039d57600080fd5b5061015761076e565b3480156103b257600080fd5b50610157600160a060020a0360043516610774565b3480156103d357600080fd5b50604080516020601f60643560048181013592830184900484028501840190955281845261030394600160a060020a03813581169560248035909216956044359536956084940191819084018382808284375050604080516020601f89358b018035918201839004830284018301909452808352979a99988101979196509182019450925082915084018382808284375094975050933594506107869350505050565b34801561048257600080fd5b50610303600160a060020a0360043516610b5f565b604080517f6f72672e6d6574616469756d2e70726f78792e696d706c656d656e746174696f81527f6e00000000000000000000000000000000000000000000000000000000000000602082015290519081900360210190205490565b60086020526000908152604090205481565b60076020908152600091825260409182902080548351601f6002600019610100600186161502019093169290920491820184900484028101840190945280845290929183919083018282801561059c5780601f106105715761010080835404028352916020019161059c565b820191906000526020600020905b81548152906001019060200180831161057f57829003601f168201915b505050505090806001018054600181600116156101000203166002900480601f01602080910402602001604051908101604052809291908181526020018280546001816001161561010002031660029004801561063a5780601f1061060f5761010080835404028352916020019161063a565b820191906000526020600020905b81548152906001019060200180831161061d57829003601f168201915b5050505050908060020154905083565b60065481565b600154600160a060020a031681565b600460205260009081526040902054600160a060020a031681565b60025481565b6106886106fa565b151561069357600080fd5b60008054604051600160a060020a03909116907f8be0079c531659141344cd1fd0a4f28419497f9722a3daafe3b4186f6b6457e0908390a36000805473ffffffffffffffffffffffffffffffffffffffff19169055565b600054600160a060020a03165b90565b600054600160a060020a0316331490565b600960205260009081526040902054600160a060020a031681565b61072e6106fa565b151561073957600080fd5b6001805473ffffffffffffffffffffffffffffffffffffffff1916600160a060020a0392909216919091179055565b600a5481565b600b5481565b60056020526000908152604090205481565b6000806107916106fa565b151561079c57600080fd5b60035460ff161561080e57604080517f08c379a000000000000000000000000000000000000000000000000000000000815260206004820152601360248201527f416c726561647920696e697469616c697a656400000000000000000000000000604482015290519081900360640190fd5b6003805460ff1916600117905561082488610726565b61082d87610b7e565b600154604080517f0d2020dd0000000000000000000000000000000000000000000000000000000081527f5374616b696e670000000000000000000000000000000000000000000000000060048201529051600160a060020a0390921691630d2020dd916024808201926020929091908290030181600087803b1580156108b357600080fd5b505af11580156108c7573d6000803e3d6000fd5b505050506040513d60208110156108dd57600080fd5b5051604080517fa0821be300000000000000000000000000000000000000000000000000000000815233600482015290519193508791600160a060020a0385169163a0821be39160248083019260209291908290030181600087803b15801561094557600080fd5b505af1158015610959573d6000803e3d6000fd5b505050506040513d602081101561096f57600080fd5b505110156109de57604080517f08c379a000000000000000000000000000000000000000000000000000000000815260206004820152601460248201527f496e73756666696369656e74207374616b696e67000000000000000000000000604482015290519081900360640190fd5b604080517f282d3fdf000000000000000000000000000000000000000000000000000000008152336004820152602481018890529051600160a060020a0384169163282d3fdf91604480830192600092919082900301818387803b158015610a4557600080fd5b505af1158015610a59573d6000803e3d6000fd5b5050600160068190557fabd6e7cb50984ff9c2f3e18a2660c3353dadf4e3291deeb275dae2cd1e44fe05805473ffffffffffffffffffffffffffffffffffffffff19163390811790915560009081526005602090815260408220839055600a8390559190526007815287517fb39221ace053465ec3453ce2b36430bd138b997ecea25c1043da0c366812b8289450610af8935084925090880190610c56565b508351610b0e9060018301906020870190610c56565b50600201919091555050600a543360008181526008602090815260408083208590559382526009905291909120805473ffffffffffffffffffffffffffffffffffffffff1916909117905550505050565b610b676106fa565b1515610b7257600080fd5b610b7b81610bd9565b50565b604080517f6f72672e6d6574616469756d2e70726f78792e696d706c656d656e746174696f81527f6e000000000000000000000000000000000000000000000000000000000000006020820152905190819003602101902055565b600160a060020a0381161515610bee57600080fd5b60008054604051600160a060020a03808516939216917f8be0079c531659141344cd1fd0a4f28419497f9722a3daafe3b4186f6b6457e091a36000805473ffffffffffffffffffffffffffffffffffffffff1916600160a060020a0392909216919091179055565b828054600181600116156101000203166002900490600052602060002090601f016020900481019282601f10610c9757805160ff1916838001178555610cc4565b82800160010185558215610cc4579182015b82811115610cc4578251825591602001919060010190610ca9565b50610cd0929150610cd4565b5090565b6106f791905b80821115610cd05760008155600101610cda5600a165627a7a7230582051c941a9f62ec389a6852b860de321a7d87cecd9f4408606b060614215b997ab0029",
  "source": "pragma solidity ^0.4.24;\n\nimport \"openzeppelin-solidity/contracts/math/SafeMath.sol\";\nimport \"./proxy/UpgradeabilityProxy.sol\";\nimport \"./GovChecker.sol\";\nimport \"./Staking.sol\";\n\n\ncontract Gov is UpgradeabilityProxy, GovChecker {\n    bool private initialized;\n\n    // For member\n    mapping(uint256 => address) public members;\n    mapping(address => uint256) public memberIdx;\n    uint256 public memberLength;\n\n    // For enode\n    struct Node {\n        bytes enode;\n        bytes ip;\n        uint port;\n    }\n    mapping(uint256 => Node) public nodes;\n    mapping(address => uint256) public nodeIdxFromMember;\n    mapping(uint256 => address) public nodeToMember;\n    uint256 public nodeLength;\n\n    // For ballot\n    uint256 public ballotLength;\n\n    constructor() public {\n        initialized = false;\n        memberLength = 0;\n        nodeLength = 0;\n        ballotLength = 0;\n    }\n\n    function init(\n        address registry,\n        address implementation,\n        uint256 lockAmount,\n        bytes enode,\n        bytes ip,\n        uint port\n    )\n        public onlyOwner\n    {\n        require(initialized == false, \"Already initialized\");\n        initialized = true;\n        setRegistry(registry);\n        setImplementation(implementation);\n\n        // Lock\n        Staking staking = Staking(REG.getContractAddress(\"Staking\"));\n        require(staking.availableBalance(msg.sender) >= lockAmount, \"Insufficient staking\");\n        staking.lock(msg.sender, lockAmount);\n\n        // Add member\n        memberLength = 1;\n        members[memberLength] = msg.sender;\n        memberIdx[msg.sender] = memberLength;\n\n        // Add node\n        nodeLength = 1;\n        Node storage node = nodes[nodeLength];\n        node.enode = enode;\n        node.ip = ip;\n        node.port = port;\n        nodeIdxFromMember[msg.sender] = nodeLength;\n        nodeToMember[nodeLength] = msg.sender;\n    }\n}",
  "sourcePath": "/Users/jeong-go-eun/Desktop/metabolics/contracts/Gov.sol",
  "compiler": {
    "name": "solc",
    "version": "0.4.24+commit.e67f0147.Emscripten.clang"
  },
  "schemaVersion": "2.0.1",
  "updatedAt": "2019-01-28T08:38:53.081Z"
}