{
  "contractName": "GovChecker",
  "abi": [
    {
      "constant": true,
      "inputs": [],
      "name": "REG",
      "outputs": [
        {
          "name": "",
          "type": "address"
        }
      ],
      "payable": false,
      "stateMutability": "view",
      "type": "function"
    },
    {
      "constant": true,
      "inputs": [],
      "name": "GOV_NAME",
      "outputs": [
        {
          "name": "",
          "type": "bytes32"
        }
      ],
      "payable": false,
      "stateMutability": "view",
      "type": "function"
    },
    {
      "constant": false,
      "inputs": [],
      "name": "renounceOwnership",
      "outputs": [],
      "payable": false,
      "stateMutability": "nonpayable",
      "type": "function"
    },
    {
      "constant": true,
      "inputs": [],
      "name": "owner",
      "outputs": [
        {
          "name": "",
          "type": "address"
        }
      ],
      "payable": false,
      "stateMutability": "view",
      "type": "function"
    },
    {
      "constant": true,
      "inputs": [],
      "name": "isOwner",
      "outputs": [
        {
          "name": "",
          "type": "bool"
        }
      ],
      "payable": false,
      "stateMutability": "view",
      "type": "function"
    },
    {
      "constant": false,
      "inputs": [
        {
          "name": "newOwner",
          "type": "address"
        }
      ],
      "name": "transferOwnership",
      "outputs": [],
      "payable": false,
      "stateMutability": "nonpayable",
      "type": "function"
    },
    {
      "anonymous": false,
      "inputs": [
        {
          "indexed": true,
          "name": "previousOwner",
          "type": "address"
        },
        {
          "indexed": true,
          "name": "newOwner",
          "type": "address"
        }
      ],
      "name": "OwnershipTransferred",
      "type": "event"
    },
    {
      "constant": false,
      "inputs": [
        {
          "name": "_addr",
          "type": "address"
        }
      ],
      "name": "setRegistry",
      "outputs": [],
      "payable": false,
      "stateMutability": "nonpayable",
      "type": "function"
    }
  ],
  "bytecode": "0x608060408190527f476f7665726e616e6365436f6e7472616374000000000000000000000000000060025560008054600160a060020a0319163317808255600160a060020a0316917f8be0079c531659141344cd1fd0a4f28419497f9722a3daafe3b4186f6b6457e0908290a361031f8061007b6000396000f3006080604052600436106100825763ffffffff7c01000000000000000000000000000000000000000000000000000000006000350416633936311281146100875780636c78d2cf146100b8578063715018a6146100df5780638da5cb5b146100f65780638f32d59b1461010b578063a91ee0dc14610134578063f2fde38b14610155575b600080fd5b34801561009357600080fd5b5061009c610176565b60408051600160a060020a039092168252519081900360200190f35b3480156100c457600080fd5b506100cd610185565b60408051918252519081900360200190f35b3480156100eb57600080fd5b506100f461018b565b005b34801561010257600080fd5b5061009c6101f5565b34801561011757600080fd5b50610120610204565b604080519115158252519081900360200190f35b34801561014057600080fd5b506100f4600160a060020a0360043516610215565b34801561016157600080fd5b506100f4600160a060020a0360043516610257565b600154600160a060020a031681565b60025481565b610193610204565b151561019e57600080fd5b60008054604051600160a060020a03909116907f8be0079c531659141344cd1fd0a4f28419497f9722a3daafe3b4186f6b6457e0908390a36000805473ffffffffffffffffffffffffffffffffffffffff19169055565b600054600160a060020a031690565b600054600160a060020a0316331490565b61021d610204565b151561022857600080fd5b6001805473ffffffffffffffffffffffffffffffffffffffff1916600160a060020a0392909216919091179055565b61025f610204565b151561026a57600080fd5b61027381610276565b50565b600160a060020a038116151561028b57600080fd5b60008054604051600160a060020a03808516939216917f8be0079c531659141344cd1fd0a4f28419497f9722a3daafe3b4186f6b6457e091a36000805473ffffffffffffffffffffffffffffffffffffffff1916600160a060020a03929092169190911790555600a165627a7a7230582017581b1e7d803951de42ceefc1162067190bd475038e6febf72bcd7f59cd68480029",
  "source": "pragma solidity ^0.4.24;\n\nimport \"openzeppelin-solidity/contracts/ownership/Ownable.sol\";\nimport \"./Registry.sol\";\nimport \"./Gov.sol\";\n\n\n/**\n * @title GovChecker\n * @dev GovChecker Contract that uses Registry contract\n */\ncontract GovChecker is Ownable {\n\n    Registry public REG;\n    bytes32 public GOV_NAME =\"GovernanceContract\";\n\n    /**\n     * @dev Function to set registry address. Contract that wants to use registry should setRegistry first.\n     * @param _addr address of registry\n     * @return A boolean that indicates if the operation was successful.\n     */\n    function setRegistry(address _addr) public onlyOwner {\n        REG = Registry(_addr);\n    }\n    \n    modifier onlyGov() {\n        require(REG.getContractAddress(GOV_NAME) == msg.sender, \"No Permission\");\n        _;\n    }\n\n    modifier onlyGovMem() {\n        address addr = REG.getContractAddress(GOV_NAME);\n        require(addr != address(0), \"No Governance\");\n        require(Gov(addr).memberIdx(msg.sender) != 0, \"No Permission\");\n        _;\n    }\n\n}",
  "sourcePath": "/Users/jeong-go-eun/Desktop/metabolics/contracts/GovChecker.sol",
  "compiler": {
    "name": "solc",
    "version": "0.4.24+commit.e67f0147.Emscripten.clang"
  },
  "schemaVersion": "2.0.1",
  "updatedAt": "2019-01-28T08:33:24.931Z"
}