{
  "contractName": "GovImp",
  "abi": [
    {
      "constant": true,
      "inputs": [
        {
          "name": "",
          "type": "address"
        }
      ],
      "name": "nodeIdxFromMember",
      "outputs": [
        {
          "name": "",
          "type": "uint256"
        }
      ],
      "payable": false,
      "stateMutability": "view",
      "type": "function"
    },
    {
      "constant": true,
      "inputs": [
        {
          "name": "",
          "type": "uint256"
        }
      ],
      "name": "nodes",
      "outputs": [
        {
          "name": "enode",
          "type": "bytes"
        },
        {
          "name": "ip",
          "type": "bytes"
        },
        {
          "name": "port",
          "type": "uint256"
        }
      ],
      "payable": false,
      "stateMutability": "view",
      "type": "function"
    },
    {
      "constant": true,
      "inputs": [],
      "name": "memberLength",
      "outputs": [
        {
          "name": "",
          "type": "uint256"
        }
      ],
      "payable": false,
      "stateMutability": "view",
      "type": "function"
    },
    {
      "constant": true,
      "inputs": [],
      "name": "REG",
      "outputs": [
        {
          "name": "",
          "type": "address"
        }
      ],
      "payable": false,
      "stateMutability": "view",
      "type": "function"
    },
    {
      "constant": true,
      "inputs": [],
      "name": "implementation",
      "outputs": [
        {
          "name": "impl",
          "type": "address"
        }
      ],
      "payable": false,
      "stateMutability": "view",
      "type": "function"
    },
    {
      "constant": true,
      "inputs": [
        {
          "name": "",
          "type": "uint256"
        }
      ],
      "name": "members",
      "outputs": [
        {
          "name": "",
          "type": "address"
        }
      ],
      "payable": false,
      "stateMutability": "view",
      "type": "function"
    },
    {
      "constant": true,
      "inputs": [],
      "name": "GOV_NAME",
      "outputs": [
        {
          "name": "",
          "type": "bytes32"
        }
      ],
      "payable": false,
      "stateMutability": "view",
      "type": "function"
    },
    {
      "constant": false,
      "inputs": [],
      "name": "renounceOwnership",
      "outputs": [],
      "payable": false,
      "stateMutability": "nonpayable",
      "type": "function"
    },
    {
      "constant": true,
      "inputs": [],
      "name": "owner",
      "outputs": [
        {
          "name": "",
          "type": "address"
        }
      ],
      "payable": false,
      "stateMutability": "view",
      "type": "function"
    },
    {
      "constant": true,
      "inputs": [],
      "name": "isOwner",
      "outputs": [
        {
          "name": "",
          "type": "bool"
        }
      ],
      "payable": false,
      "stateMutability": "view",
      "type": "function"
    },
    {
      "constant": true,
      "inputs": [
        {
          "name": "",
          "type": "uint256"
        }
      ],
      "name": "nodeToMember",
      "outputs": [
        {
          "name": "",
          "type": "address"
        }
      ],
      "payable": false,
      "stateMutability": "view",
      "type": "function"
    },
    {
      "constant": false,
      "inputs": [
        {
          "name": "_addr",
          "type": "address"
        }
      ],
      "name": "setRegistry",
      "outputs": [],
      "payable": false,
      "stateMutability": "nonpayable",
      "type": "function"
    },
    {
      "constant": true,
      "inputs": [],
      "name": "nodeLength",
      "outputs": [
        {
          "name": "",
          "type": "uint256"
        }
      ],
      "payable": false,
      "stateMutability": "view",
      "type": "function"
    },
    {
      "constant": true,
      "inputs": [],
      "name": "ballotLength",
      "outputs": [
        {
          "name": "",
          "type": "uint256"
        }
      ],
      "payable": false,
      "stateMutability": "view",
      "type": "function"
    },
    {
      "constant": true,
      "inputs": [
        {
          "name": "",
          "type": "address"
        }
      ],
      "name": "memberIdx",
      "outputs": [
        {
          "name": "",
          "type": "uint256"
        }
      ],
      "payable": false,
      "stateMutability": "view",
      "type": "function"
    },
    {
      "constant": false,
      "inputs": [
        {
          "name": "registry",
          "type": "address"
        },
        {
          "name": "implementation",
          "type": "address"
        },
        {
          "name": "lockAmount",
          "type": "uint256"
        },
        {
          "name": "enode",
          "type": "bytes"
        },
        {
          "name": "ip",
          "type": "bytes"
        },
        {
          "name": "port",
          "type": "uint256"
        }
      ],
      "name": "init",
      "outputs": [],
      "payable": false,
      "stateMutability": "nonpayable",
      "type": "function"
    },
    {
      "constant": false,
      "inputs": [
        {
          "name": "newOwner",
          "type": "address"
        }
      ],
      "name": "transferOwnership",
      "outputs": [],
      "payable": false,
      "stateMutability": "nonpayable",
      "type": "function"
    },
    {
      "payable": true,
      "stateMutability": "payable",
      "type": "fallback"
    },
    {
      "anonymous": false,
      "inputs": [
        {
          "indexed": true,
          "name": "previousOwner",
          "type": "address"
        },
        {
          "indexed": true,
          "name": "newOwner",
          "type": "address"
        }
      ],
      "name": "OwnershipTransferred",
      "type": "event"
    },
    {
      "anonymous": false,
      "inputs": [
        {
          "indexed": true,
          "name": "implementation",
          "type": "address"
        }
      ],
      "name": "Upgraded",
      "type": "event"
    },
    {
      "constant": false,
      "inputs": [],
      "name": "addProposalForAddMember",
      "outputs": [
        {
          "name": "",
          "type": "bool"
        }
      ],
      "payable": false,
      "stateMutability": "nonpayable",
      "type": "function"
    },
    {
      "constant": false,
      "inputs": [],
      "name": "addProposalForSubMember",
      "outputs": [
        {
          "name": "",
          "type": "bool"
        }
      ],
      "payable": false,
      "stateMutability": "nonpayable",
      "type": "function"
    },
    {
      "constant": false,
      "inputs": [],
      "name": "addProposalForReplaceMember",
      "outputs": [
        {
          "name": "",
          "type": "bool"
        }
      ],
      "payable": false,
      "stateMutability": "nonpayable",
      "type": "function"
    },
    {
      "constant": false,
      "inputs": [],
      "name": "vote",
      "outputs": [
        {
          "name": "",
          "type": "bool"
        }
      ],
      "payable": false,
      "stateMutability": "nonpayable",
      "type": "function"
    }
  ],
  "bytecode": "0x608060408190527f476f7665726e616e6365436f6e7472616374000000000000000000000000000060025560008054600160a060020a0319163317808255600160a060020a0316917f8be0079c531659141344cd1fd0a4f28419497f9722a3daafe3b4186f6b6457e0908290a36003805460ff1916905560006006819055600a819055600b556001600c55611125806100996000396000f30060806040526004361061011c5763ffffffff7c010000000000000000000000000000000000000000000000000000000060003504166304158912811461016257806310056287146101955780631c53c280146101be57806331fd6c6a146102bb5780633606cc971461019557806339363112146102d05780635c60da1b146103015780635daf08ca14610316578063632a9a521461032e5780636c78d2cf14610343578063715018a6146103585780637b184e561461032e5780638da5cb5b1461036f5780638f32d59b1461038457806393ca81e714610399578063a91ee0dc146103b1578063cabf3e51146103d2578063d6f9cfce146103e7578063e2d2e1da146103fc578063e4df5ea91461041d578063f2fde38b146104cc575b60006101266104ed565b9050600160a060020a038116151561013d57600080fd5b60405136600082376000803683855af43d806000843e81801561015e578184f35b8184fd5b34801561016e57600080fd5b50610183600160a060020a0360043516610549565b60408051918252519081900360200190f35b3480156101a157600080fd5b506101aa61055b565b604080519115158252519081900360200190f35b3480156101ca57600080fd5b506101d660043561074b565b604051808060200180602001848152602001838103835286818151815260200191508051906020019080838360005b8381101561021d578181015183820152602001610205565b50505050905090810190601f16801561024a5780820380516001836020036101000a031916815260200191505b50838103825285518152855160209182019187019080838360005b8381101561027d578181015183820152602001610265565b50505050905090810190601f1680156102aa5780820380516001836020036101000a031916815260200191505b509550505050505060405180910390f35b3480156102c757600080fd5b50610183610890565b3480156102dc57600080fd5b506102e5610896565b60408051600160a060020a039092168252519081900360200190f35b34801561030d57600080fd5b506102e56104ed565b34801561032257600080fd5b506102e56004356108a5565b34801561033a57600080fd5b506101aa6108c0565b34801561034f57600080fd5b50610183610ab3565b34801561036457600080fd5b5061036d610ab9565b005b34801561037b57600080fd5b506102e5610b23565b34801561039057600080fd5b506101aa610b33565b3480156103a557600080fd5b506102e5600435610b44565b3480156103bd57600080fd5b5061036d600160a060020a0360043516610b5f565b3480156103de57600080fd5b50610183610ba1565b3480156103f357600080fd5b50610183610ba7565b34801561040857600080fd5b50610183600160a060020a0360043516610bad565b34801561042957600080fd5b50604080516020601f60643560048181013592830184900484028501840190955281845261036d94600160a060020a03813581169560248035909216956044359536956084940191819084018382808284375050604080516020601f89358b018035918201839004830284018301909452808352979a9998810197919650918201945092508291508401838280828437509497505093359450610bbf9350505050565b3480156104d857600080fd5b5061036d600160a060020a0360043516610f6a565b604080517f6f72672e6d6574616469756d2e70726f78792e696d706c656d656e746174696f81527f6e00000000000000000000000000000000000000000000000000000000000000602082015290519081900360210190205490565b60086020526000908152604090205481565b600154600254604080517f0d2020dd0000000000000000000000000000000000000000000000000000000081526004810192909252516000928392600160a060020a0390911691630d2020dd9160248082019260209290919082900301818787803b1580156105c957600080fd5b505af11580156105dd573d6000803e3d6000fd5b505050506040513d60208110156105f357600080fd5b50519050600160a060020a0381161515610657576040805160e560020a62461bcd02815260206004820152600d60248201527f4e6f20476f7665726e616e636500000000000000000000000000000000000000604482015290519081900360640190fd5b604080517fe2d2e1da0000000000000000000000000000000000000000000000000000000081523360048201529051600160a060020a0383169163e2d2e1da9160248083019260209291908290030181600087803b1580156106b857600080fd5b505af11580156106cc573d6000803e3d6000fd5b505050506040513d60208110156106e257600080fd5b5051151561073a576040805160e560020a62461bcd02815260206004820152600d60248201527f4e6f205065726d697373696f6e00000000000000000000000000000000000000604482015290519081900360640190fd5b600c8054600101908190555b505090565b60076020908152600091825260409182902080548351601f600260001961010060018616150201909316929092049182018490048402810184019094528084529092918391908301828280156107e25780601f106107b7576101008083540402835291602001916107e2565b820191906000526020600020905b8154815290600101906020018083116107c557829003601f168201915b505050505090806001018054600181600116156101000203166002900480601f0160208091040260200160405190810160405280929190818152602001828054600181600116156101000203166002900480156108805780601f1061085557610100808354040283529160200191610880565b820191906000526020600020905b81548152906001019060200180831161086357829003601f168201915b5050505050908060020154905083565b60065481565b600154600160a060020a031681565b600460205260009081526040902054600160a060020a031681565b600154600254604080517f0d2020dd0000000000000000000000000000000000000000000000000000000081526004810192909252516000928392600160a060020a0390911691630d2020dd9160248082019260209290919082900301818787803b15801561092e57600080fd5b505af1158015610942573d6000803e3d6000fd5b505050506040513d602081101561095857600080fd5b50519050600160a060020a03811615156109bc576040805160e560020a62461bcd02815260206004820152600d60248201527f4e6f20476f7665726e616e636500000000000000000000000000000000000000604482015290519081900360640190fd5b604080517fe2d2e1da0000000000000000000000000000000000000000000000000000000081523360048201529051600160a060020a0383169163e2d2e1da9160248083019260209291908290030181600087803b158015610a1d57600080fd5b505af1158015610a31573d6000803e3d6000fd5b505050506040513d6020811015610a4757600080fd5b50511515610a9f576040805160e560020a62461bcd02815260206004820152600d60248201527f4e6f205065726d697373696f6e00000000000000000000000000000000000000604482015290519081900360640190fd5b600c80546001908101918290559250610746565b60025481565b610ac1610b33565b1515610acc57600080fd5b60008054604051600160a060020a03909116907f8be0079c531659141344cd1fd0a4f28419497f9722a3daafe3b4186f6b6457e0908390a36000805473ffffffffffffffffffffffffffffffffffffffff19169055565b600054600160a060020a03165b90565b600054600160a060020a0316331490565b600960205260009081526040902054600160a060020a031681565b610b67610b33565b1515610b7257600080fd5b6001805473ffffffffffffffffffffffffffffffffffffffff1916600160a060020a0392909216919091179055565b600a5481565b600b5481565b60056020526000908152604090205481565b600080610bca610b33565b1515610bd557600080fd5b60035460ff1615610c30576040805160e560020a62461bcd02815260206004820152601360248201527f416c726561647920696e697469616c697a656400000000000000000000000000604482015290519081900360640190fd5b6003805460ff19166001179055610c4688610b5f565b610c4f87610f89565b600154604080517f0d2020dd0000000000000000000000000000000000000000000000000000000081527f5374616b696e670000000000000000000000000000000000000000000000000060048201529051600160a060020a0390921691630d2020dd916024808201926020929091908290030181600087803b158015610cd557600080fd5b505af1158015610ce9573d6000803e3d6000fd5b505050506040513d6020811015610cff57600080fd5b5051604080517fa0821be300000000000000000000000000000000000000000000000000000000815233600482015290519193508791600160a060020a0385169163a0821be39160248083019260209291908290030181600087803b158015610d6757600080fd5b505af1158015610d7b573d6000803e3d6000fd5b505050506040513d6020811015610d9157600080fd5b50511015610de9576040805160e560020a62461bcd02815260206004820152601460248201527f496e73756666696369656e74207374616b696e67000000000000000000000000604482015290519081900360640190fd5b604080517f282d3fdf000000000000000000000000000000000000000000000000000000008152336004820152602481018890529051600160a060020a0384169163282d3fdf91604480830192600092919082900301818387803b158015610e5057600080fd5b505af1158015610e64573d6000803e3d6000fd5b5050600160068190557fabd6e7cb50984ff9c2f3e18a2660c3353dadf4e3291deeb275dae2cd1e44fe05805473ffffffffffffffffffffffffffffffffffffffff19163390811790915560009081526005602090815260408220839055600a8390559190526007815287517fb39221ace053465ec3453ce2b36430bd138b997ecea25c1043da0c366812b8289450610f03935084925090880190611061565b508351610f199060018301906020870190611061565b50600201919091555050600a543360008181526008602090815260408083208590559382526009905291909120805473ffffffffffffffffffffffffffffffffffffffff1916909117905550505050565b610f72610b33565b1515610f7d57600080fd5b610f8681610fe4565b50565b604080517f6f72672e6d6574616469756d2e70726f78792e696d706c656d656e746174696f81527f6e000000000000000000000000000000000000000000000000000000000000006020820152905190819003602101902055565b600160a060020a0381161515610ff957600080fd5b60008054604051600160a060020a03808516939216917f8be0079c531659141344cd1fd0a4f28419497f9722a3daafe3b4186f6b6457e091a36000805473ffffffffffffffffffffffffffffffffffffffff1916600160a060020a0392909216919091179055565b828054600181600116156101000203166002900490600052602060002090601f016020900481019282601f106110a257805160ff19168380011785556110cf565b828001600101855582156110cf579182015b828111156110cf5782518255916020019190600101906110b4565b506110db9291506110df565b5090565b610b3091905b808211156110db57600081556001016110e55600a165627a7a72305820115cf86c532979501b76a272b4d0317862789721ef08070c19a6deb974cf3a8a0029",
  "source": "pragma solidity ^0.4.24;\n\nimport \"openzeppelin-solidity/contracts/utils/ReentrancyGuard.sol\";\nimport \"./Gov.sol\";\nimport \"./abstract/VotingTypes.sol\";\nimport \"./storage/BallotStorage.sol\";\n\n\ncontract GovImp is Gov, ReentrancyGuard, EnumVotingTypes {\n    bytes32 internal constant BLOCK_PER = keccak256(\"blockPer\");\n    bytes32 internal constant THRESHOLD = keccak256(\"threshold\");\n\n    function addProposalForAddMember() external onlyGovMem nonReentrant returns (bool) {\n        return true;\n    }\n\n    function addProposalForSubMember() external onlyGovMem nonReentrant returns (bool) {}\n    function addProposalForReplaceMember() external onlyGovMem nonReentrant returns (bool) {}\n\n    function vote() external onlyGovMem nonReentrant returns (bool) {\n        return true;\n    }\n\n    // function addMember(address addr, bytes enode, bytes ip, uint port) private {}\n    // function subMember(address addr) private {}\n    // function replaceMember(address target, address nAddr, bytes nEnode, bytes nIp, uint nPort) private {}\n}",
  "sourcePath": "/Users/jeong-go-eun/Desktop/metabolics/contracts/GovImp.sol",
  "compiler": {
    "name": "solc",
    "version": "0.4.24+commit.e67f0147.Emscripten.clang"
  },
  "schemaVersion": "2.0.1",
  "updatedAt": "2019-01-28T08:38:53.058Z"
}