{
  "contractName": "OwnedUpgradeabilityProxy",
  "abi": [
    {
      "constant": true,
      "inputs": [],
      "name": "implementation",
      "outputs": [
        {
          "name": "impl",
          "type": "address"
        }
      ],
      "payable": false,
      "stateMutability": "view",
      "type": "function"
    },
    {
      "inputs": [],
      "payable": false,
      "stateMutability": "nonpayable",
      "type": "constructor"
    },
    {
      "payable": true,
      "stateMutability": "payable",
      "type": "fallback"
    },
    {
      "anonymous": false,
      "inputs": [
        {
          "indexed": false,
          "name": "previousOwner",
          "type": "address"
        },
        {
          "indexed": false,
          "name": "newOwner",
          "type": "address"
        }
      ],
      "name": "ProxyOwnershipTransferred",
      "type": "event"
    },
    {
      "anonymous": false,
      "inputs": [
        {
          "indexed": true,
          "name": "implementation",
          "type": "address"
        }
      ],
      "name": "Upgraded",
      "type": "event"
    },
    {
      "constant": true,
      "inputs": [],
      "name": "proxyOwner",
      "outputs": [
        {
          "name": "owner",
          "type": "address"
        }
      ],
      "payable": false,
      "stateMutability": "view",
      "type": "function"
    },
    {
      "constant": false,
      "inputs": [
        {
          "name": "newOwner",
          "type": "address"
        }
      ],
      "name": "transferProxyOwnership",
      "outputs": [],
      "payable": false,
      "stateMutability": "nonpayable",
      "type": "function"
    },
    {
      "constant": false,
      "inputs": [
        {
          "name": "implementation",
          "type": "address"
        }
      ],
      "name": "upgradeTo",
      "outputs": [],
      "payable": false,
      "stateMutability": "nonpayable",
      "type": "function"
    },
    {
      "constant": false,
      "inputs": [
        {
          "name": "implementation",
          "type": "address"
        },
        {
          "name": "data",
          "type": "bytes"
        }
      ],
      "name": "upgradeToAndCall",
      "outputs": [],
      "payable": true,
      "stateMutability": "payable",
      "type": "function"
    }
  ],
  "bytecode": "0x608060405234801561001057600080fd5b5061002333640100000000610028810204565b61005d565b604080517f6f72672e6d6574616469756d2e70726f78792e6f776e657200000000000000008152905190819003601801902055565b6104a38061006c6000396000f30060806040526004361061006c5763ffffffff7c0100000000000000000000000000000000000000000000000000000000600035041663025313a281146100b25780633659cfe6146100e35780634f1ef286146101065780635c60da1b14610160578063f1739cae14610175575b6000610076610196565b9050600160a060020a038116151561008d57600080fd5b60405136600082376000803683855af43d806000843e8180156100ae578184f35b8184fd5b3480156100be57600080fd5b506100c76101f2565b60408051600160a060020a039092168252519081900360200190f35b3480156100ef57600080fd5b50610104600160a060020a0360043516610228565b005b60408051602060046024803582810135601f8101859004850286018501909652858552610104958335600160a060020a03169536956044949193909101919081908401838280828437509497506102509650505050505050565b34801561016c57600080fd5b506100c7610196565b34801561018157600080fd5b50610104600160a060020a03600435166102fc565b604080517f6f72672e6d6574616469756d2e70726f78792e696d706c656d656e746174696f81527f6e00000000000000000000000000000000000000000000000000000000000000602082015290519081900360210190205490565b604080517f6f72672e6d6574616469756d2e70726f78792e6f776e65720000000000000000815290519081900360180190205490565b6102306101f2565b600160a060020a0316331461024457600080fd5b61024d81610381565b50565b6102586101f2565b600160a060020a0316331461026c57600080fd5b61027582610228565b30600160a060020a0316348260405180828051906020019080838360005b838110156102ab578181015183820152602001610293565b50505050905090810190601f1680156102d85780820380516001836020036101000a031916815260200191505b5091505060006040518083038185875af19250505015156102f857600080fd5b5050565b6103046101f2565b600160a060020a0316331461031857600080fd5b600160a060020a038116151561032d57600080fd5b7f5a3e66efaa1e445ebd894728a69d6959842ea1e97bd79b892797106e270efcd96103566101f2565b60408051600160a060020a03928316815291841660208301528051918290030190a161024d816103e7565b600061038b610196565b9050600160a060020a0380821690831614156103a657600080fd5b6103af8261041c565b604051600160a060020a038316907fbc7cd75a20ee27fd9adebab32041f755214dbc6bffa90cc0225b39da2e5c2d3b90600090a25050565b604080517f6f72672e6d6574616469756d2e70726f78792e6f776e657200000000000000008152905190819003601801902055565b604080517f6f72672e6d6574616469756d2e70726f78792e696d706c656d656e746174696f81527f6e0000000000000000000000000000000000000000000000000000000000000060208201529051908190036021019020555600a165627a7a723058207871cd68954340a1ee563ece931feb131d93c521fa803391830143ccba9f81260029",
  "source": "pragma solidity ^0.4.24;\n\nimport './UpgradeabilityProxy.sol';\n\n\n/**\n * @title OwnedUpgradeabilityProxy\n * @dev This contract combines an upgradeability proxy with basic authorization control functionalities\n */\ncontract OwnedUpgradeabilityProxy is UpgradeabilityProxy {\n    /**\n    * @dev Event to show ownership has been transferred\n    * @param previousOwner representing the address of the previous owner\n    * @param newOwner representing the address of the new owner\n    */\n    event ProxyOwnershipTransferred(address previousOwner, address newOwner);\n\n    // Storage position of the owner of the contract\n    bytes32 private constant proxyOwnerPosition = keccak256(\"org.metadium.proxy.owner\");\n\n    /**\n    * @dev the constructor sets the original owner of the contract to the sender account.\n    */\n    constructor() public {\n        setUpgradeabilityOwner(msg.sender);\n    }\n\n    /**\n    * @dev Throws if called by any account other than the owner.\n    */\n    modifier onlyProxyOwner() {\n        require(msg.sender == proxyOwner());\n        _;\n    }\n\n    /**\n     * @dev Tells the address of the owner\n     * @return the address of the owner\n     */\n    function proxyOwner() public view returns (address owner) {\n        bytes32 position = proxyOwnerPosition;\n        assembly {\n            owner := sload(position)\n        }\n    }\n\n    /**\n     * @dev Sets the address of the owner\n     */\n    function setUpgradeabilityOwner(address newProxyOwner) internal {\n        bytes32 position = proxyOwnerPosition;\n        assembly {\n          sstore(position, newProxyOwner)\n        }\n    }\n\n    /**\n     * @dev Allows the current owner to transfer control of the contract to a newOwner.\n     * @param newOwner The address to transfer ownership to.\n     */\n    function transferProxyOwnership(address newOwner) public onlyProxyOwner {\n        require(newOwner != address(0));\n        emit ProxyOwnershipTransferred(proxyOwner(), newOwner);\n        setUpgradeabilityOwner(newOwner);\n    }\n\n    /**\n     * @dev Allows the proxy owner to upgrade the current version of the proxy.\n     * @param implementation representing the address of the new implementation to be set.\n     */\n    function upgradeTo(address implementation) public onlyProxyOwner {\n        _upgradeTo(implementation);\n    }\n\n    /**\n     * @dev Allows the proxy owner to upgrade the current version of the proxy and call the new implementation\n     * to initialize whatever is needed through a low level call.\n     * @param implementation representing the address of the new implementation to be set.\n     * @param data represents the msg.data to bet sent in the low level call. This parameter may include the function\n     * signature of the implementation to be called with the needed payload\n     */\n    function upgradeToAndCall(address implementation, bytes data) payable public onlyProxyOwner {\n        upgradeTo(implementation);\n        require(address(this).call.value(msg.value)(data));\n    }\n}",
  "sourcePath": "/Users/jeong-go-eun/Desktop/metabolics/contracts/proxy/OwnedUpgradeabilityProxy.sol",
  "compiler": {
    "name": "solc",
    "version": "0.4.24+commit.e67f0147.Emscripten.clang"
  },
  "schemaVersion": "2.0.1",
  "updatedAt": "2019-01-28T07:55:16.110Z"
}