{
  "contractName": "Registry",
  "abi": [
    {
      "constant": true,
      "inputs": [
        {
          "name": "",
          "type": "bytes32"
        },
        {
          "name": "",
          "type": "address"
        }
      ],
      "name": "permissions",
      "outputs": [
        {
          "name": "",
          "type": "bool"
        }
      ],
      "payable": false,
      "stateMutability": "view",
      "type": "function"
    },
    {
      "constant": false,
      "inputs": [],
      "name": "renounceOwnership",
      "outputs": [],
      "payable": false,
      "stateMutability": "nonpayable",
      "type": "function"
    },
    {
      "constant": true,
      "inputs": [],
      "name": "owner",
      "outputs": [
        {
          "name": "",
          "type": "address"
        }
      ],
      "payable": false,
      "stateMutability": "view",
      "type": "function"
    },
    {
      "constant": true,
      "inputs": [],
      "name": "isOwner",
      "outputs": [
        {
          "name": "",
          "type": "bool"
        }
      ],
      "payable": false,
      "stateMutability": "view",
      "type": "function"
    },
    {
      "constant": true,
      "inputs": [
        {
          "name": "",
          "type": "bytes32"
        }
      ],
      "name": "contracts",
      "outputs": [
        {
          "name": "",
          "type": "address"
        }
      ],
      "payable": false,
      "stateMutability": "view",
      "type": "function"
    },
    {
      "constant": false,
      "inputs": [
        {
          "name": "newOwner",
          "type": "address"
        }
      ],
      "name": "transferOwnership",
      "outputs": [],
      "payable": false,
      "stateMutability": "nonpayable",
      "type": "function"
    },
    {
      "anonymous": false,
      "inputs": [
        {
          "indexed": false,
          "name": "setter",
          "type": "address"
        },
        {
          "indexed": true,
          "name": "name",
          "type": "bytes32"
        },
        {
          "indexed": true,
          "name": "addr",
          "type": "address"
        }
      ],
      "name": "SetContractDomain",
      "type": "event"
    },
    {
      "anonymous": false,
      "inputs": [
        {
          "indexed": true,
          "name": "_contract",
          "type": "bytes32"
        },
        {
          "indexed": true,
          "name": "granted",
          "type": "address"
        },
        {
          "indexed": false,
          "name": "status",
          "type": "bool"
        }
      ],
      "name": "SetPermission",
      "type": "event"
    },
    {
      "anonymous": false,
      "inputs": [
        {
          "indexed": true,
          "name": "previousOwner",
          "type": "address"
        },
        {
          "indexed": true,
          "name": "newOwner",
          "type": "address"
        }
      ],
      "name": "OwnershipTransferred",
      "type": "event"
    },
    {
      "constant": false,
      "inputs": [
        {
          "name": "_name",
          "type": "bytes32"
        },
        {
          "name": "_addr",
          "type": "address"
        }
      ],
      "name": "setContractDomain",
      "outputs": [
        {
          "name": "success",
          "type": "bool"
        }
      ],
      "payable": false,
      "stateMutability": "nonpayable",
      "type": "function"
    },
    {
      "constant": true,
      "inputs": [
        {
          "name": "_name",
          "type": "bytes32"
        }
      ],
      "name": "getContractAddress",
      "outputs": [
        {
          "name": "addr",
          "type": "address"
        }
      ],
      "payable": false,
      "stateMutability": "view",
      "type": "function"
    },
    {
      "constant": false,
      "inputs": [
        {
          "name": "_contract",
          "type": "bytes32"
        },
        {
          "name": "_granted",
          "type": "address"
        },
        {
          "name": "_status",
          "type": "bool"
        }
      ],
      "name": "setPermission",
      "outputs": [
        {
          "name": "success",
          "type": "bool"
        }
      ],
      "payable": false,
      "stateMutability": "nonpayable",
      "type": "function"
    },
    {
      "constant": true,
      "inputs": [
        {
          "name": "_contract",
          "type": "bytes32"
        },
        {
          "name": "_granted",
          "type": "address"
        }
      ],
      "name": "getPermission",
      "outputs": [
        {
          "name": "found",
          "type": "bool"
        }
      ],
      "payable": false,
      "stateMutability": "view",
      "type": "function"
    }
  ],
  "bytecode": "0x6080604081905260008054600160a060020a0319163317808255600160a060020a0316917f8be0079c531659141344cd1fd0a4f28419497f9722a3daafe3b4186f6b6457e0908290a3610657806100576000396000f3006080604052600436106100a35763ffffffff7c010000000000000000000000000000000000000000000000000000000060003504166304af66ad81146100a85780630d2020dd146100e05780633ec50c6c14610114578063599e4c701461013857806360d6c7cf14610161578063715018a6146101855780638da5cb5b1461019c5780638f32d59b146101b1578063ec56a373146101c6578063f2fde38b146101de575b600080fd5b3480156100b457600080fd5b506100cc600435600160a060020a03602435166101ff565b604080519115158252519081900360200190f35b3480156100ec57600080fd5b506100f8600435610303565b60408051600160a060020a039092168252519081900360200190f35b34801561012057600080fd5b506100cc600435600160a060020a03602435166103a4565b34801561014457600080fd5b506100cc600435600160a060020a036024351660443515156103c4565b34801561016d57600080fd5b506100cc600435600160a060020a03602435166104bf565b34801561019157600080fd5b5061019a6104ea565b005b3480156101a857600080fd5b506100f8610554565b3480156101bd57600080fd5b506100cc610563565b3480156101d257600080fd5b506100f8600435610574565b3480156101ea57600080fd5b5061019a600160a060020a036004351661058f565b6000610209610563565b151561021457600080fd5b600160a060020a038216151561028b57604080517f08c379a000000000000000000000000000000000000000000000000000000000815260206004820152601a60248201527f616464726573732073686f756c64206265206e6f6e2d7a65726f000000000000604482015290519081900360640190fd5b600083815260016020908152604091829020805473ffffffffffffffffffffffffffffffffffffffff1916600160a060020a03861690811790915582513381529251909286927f37724a4a9968ac9654e6ee52f3d0c93e5ef8863e057254ee2e36e8ad3e8429db92918290030190a350600192915050565b600081815260016020526040812054600160a060020a0316151561038857604080517f08c379a000000000000000000000000000000000000000000000000000000000815260206004820152601a60248201527f616464726573732073686f756c64206265206e6f6e2d7a65726f000000000000604482015290519081900360640190fd5b50600090815260016020526040902054600160a060020a031690565b600260209081526000928352604080842090915290825290205460ff1681565b60006103ce610563565b15156103d957600080fd5b600160a060020a038316151561045057604080517f08c379a000000000000000000000000000000000000000000000000000000000815260206004820152601a60248201527f616464726573732073686f756c64206265206e6f6e2d7a65726f000000000000604482015290519081900360640190fd5b6000848152600260209081526040808320600160a060020a03871680855290835292819020805460ff19168615159081179091558151908152905187927fe9f5231bbfb4b32867755b94562215cff6c8998489de8ba20926f8d0980e7818928290030190a35060019392505050565b6000918252600260209081526040808420600160a060020a0393909316845291905290205460ff1690565b6104f2610563565b15156104fd57600080fd5b60008054604051600160a060020a03909116907f8be0079c531659141344cd1fd0a4f28419497f9722a3daafe3b4186f6b6457e0908390a36000805473ffffffffffffffffffffffffffffffffffffffff19169055565b600054600160a060020a031690565b600054600160a060020a0316331490565b600160205260009081526040902054600160a060020a031681565b610597610563565b15156105a257600080fd5b6105ab816105ae565b50565b600160a060020a03811615156105c357600080fd5b60008054604051600160a060020a03808516939216917f8be0079c531659141344cd1fd0a4f28419497f9722a3daafe3b4186f6b6457e091a36000805473ffffffffffffffffffffffffffffffffffffffff1916600160a060020a03929092169190911790555600a165627a7a7230582085602bbf9882ea5a229e3b8e513ad2b3adad006197dbdcc54187b0add34767770029",
  "source": "pragma solidity ^0.4.24;\n\nimport \"openzeppelin-solidity/contracts/ownership/Ownable.sol\";\n\n\n/**\n * @title Registry\n * @dev Registry Contract used to set domain and permission\n * The contracts used by the permissioned user in ShowMe references permission in this contract.\n * Not only contract address but also general address can be set in this contract.\n * Owner should set domain and permission.\n */\ncontract Registry is Ownable {\n    mapping(bytes32=>address) public contracts;\n    mapping(bytes32=>mapping(address=>bool)) public permissions;\n\n    event SetContractDomain(address setter, bytes32 indexed name, address indexed addr);\n    event SetPermission(bytes32 indexed _contract, address indexed granted, bool status);\n\n    /**\n    * @dev Function to set contract(can be general address) domain\n    * Only owner can use this function\n    * @param _name name\n    * @param _addr address\n    * @return A boolean that indicates if the operation was successful.\n    */\n    function setContractDomain(bytes32 _name, address _addr) public onlyOwner returns (bool success) {\n        require(_addr != address(0x0), \"address should be non-zero\");\n        contracts[_name] = _addr;\n\n        emit SetContractDomain(msg.sender, _name, _addr);\n\n        return true;\n    }\n\n    /**\n    * @dev Function to get contract(can be general address) address\n    * Anyone can use this function\n    * @param _name _name\n    * @return An address of the _name\n    */\n    function getContractAddress(bytes32 _name) public view returns (address addr) {\n        require(contracts[_name] != address(0x0), \"address should be non-zero\");\n        return contracts[_name];\n    }\n    \n    /**\n    * @dev Function to set permission on contract\n    * contract using modifier 'permissioned' references mapping variable 'permissions'\n    * Only owner can use this function\n    * @param _contract contract name\n    * @param _granted granted address\n    * @param _status true = can use, false = cannot use. default is false\n    * @return A boolean that indicates if the operation was successful.\n    */\n    function setPermission(bytes32 _contract, address _granted, bool _status) public onlyOwner returns (bool success) {\n        require(_granted != address(0x0), \"address should be non-zero\");\n        permissions[_contract][_granted] = _status;\n\n        emit SetPermission(_contract, _granted, _status);\n        \n        return true;\n    }\n\n    /**\n    * @dev Function to get permission on contract\n    * contract using modifier 'permissioned' references mapping variable 'permissions'\n    * @param _contract contract name\n    * @param _granted granted address\n    * @return permission result\n    */\n    function getPermission(bytes32 _contract, address _granted) public view returns (bool found) {\n        return permissions[_contract][_granted];\n    }\n    \n}",
  "sourcePath": "/Users/jeong-go-eun/Desktop/metabolics/contracts/Registry.sol",
  "compiler": {
    "name": "solc",
    "version": "0.4.24+commit.e67f0147.Emscripten.clang"
  },
  "schemaVersion": "2.0.1",
  "updatedAt": "2019-01-29T01:07:17.048Z"
}