{
  "contractName": "Staking",
  "abi": [
    {
      "constant": true,
      "inputs": [],
      "name": "REG",
      "outputs": [
        {
          "name": "",
          "type": "address"
        }
      ],
      "payable": false,
      "stateMutability": "view",
      "type": "function"
    },
    {
      "constant": true,
      "inputs": [],
      "name": "GOV_NAME",
      "outputs": [
        {
          "name": "",
          "type": "bytes32"
        }
      ],
      "payable": false,
      "stateMutability": "view",
      "type": "function"
    },
    {
      "constant": false,
      "inputs": [],
      "name": "renounceOwnership",
      "outputs": [],
      "payable": false,
      "stateMutability": "nonpayable",
      "type": "function"
    },
    {
      "constant": true,
      "inputs": [],
      "name": "owner",
      "outputs": [
        {
          "name": "",
          "type": "address"
        }
      ],
      "payable": false,
      "stateMutability": "view",
      "type": "function"
    },
    {
      "constant": true,
      "inputs": [],
      "name": "isOwner",
      "outputs": [
        {
          "name": "",
          "type": "bool"
        }
      ],
      "payable": false,
      "stateMutability": "view",
      "type": "function"
    },
    {
      "constant": false,
      "inputs": [
        {
          "name": "_addr",
          "type": "address"
        }
      ],
      "name": "setRegistry",
      "outputs": [],
      "payable": false,
      "stateMutability": "nonpayable",
      "type": "function"
    },
    {
      "constant": false,
      "inputs": [
        {
          "name": "newOwner",
          "type": "address"
        }
      ],
      "name": "transferOwnership",
      "outputs": [],
      "payable": false,
      "stateMutability": "nonpayable",
      "type": "function"
    },
    {
      "inputs": [
        {
          "name": "_registry",
          "type": "address"
        }
      ],
      "payable": false,
      "stateMutability": "nonpayable",
      "type": "constructor"
    },
    {
      "payable": true,
      "stateMutability": "payable",
      "type": "fallback"
    },
    {
      "anonymous": false,
      "inputs": [
        {
          "indexed": true,
          "name": "payee",
          "type": "address"
        },
        {
          "indexed": false,
          "name": "amount",
          "type": "uint256"
        },
        {
          "indexed": false,
          "name": "total",
          "type": "uint256"
        },
        {
          "indexed": false,
          "name": "available",
          "type": "uint256"
        }
      ],
      "name": "Staked",
      "type": "event"
    },
    {
      "anonymous": false,
      "inputs": [
        {
          "indexed": true,
          "name": "payee",
          "type": "address"
        },
        {
          "indexed": false,
          "name": "amount",
          "type": "uint256"
        },
        {
          "indexed": false,
          "name": "total",
          "type": "uint256"
        },
        {
          "indexed": false,
          "name": "available",
          "type": "uint256"
        }
      ],
      "name": "Unstaked",
      "type": "event"
    },
    {
      "anonymous": false,
      "inputs": [
        {
          "indexed": true,
          "name": "payee",
          "type": "address"
        },
        {
          "indexed": false,
          "name": "amount",
          "type": "uint256"
        },
        {
          "indexed": false,
          "name": "total",
          "type": "uint256"
        },
        {
          "indexed": false,
          "name": "available",
          "type": "uint256"
        }
      ],
      "name": "Locked",
      "type": "event"
    },
    {
      "anonymous": false,
      "inputs": [
        {
          "indexed": true,
          "name": "payee",
          "type": "address"
        },
        {
          "indexed": false,
          "name": "amount",
          "type": "uint256"
        },
        {
          "indexed": false,
          "name": "total",
          "type": "uint256"
        },
        {
          "indexed": false,
          "name": "available",
          "type": "uint256"
        }
      ],
      "name": "Unlocked",
      "type": "event"
    },
    {
      "anonymous": false,
      "inputs": [
        {
          "indexed": true,
          "name": "previousOwner",
          "type": "address"
        },
        {
          "indexed": true,
          "name": "newOwner",
          "type": "address"
        }
      ],
      "name": "OwnershipTransferred",
      "type": "event"
    },
    {
      "constant": true,
      "inputs": [
        {
          "name": "payee",
          "type": "address"
        }
      ],
      "name": "balanceOf",
      "outputs": [
        {
          "name": "",
          "type": "uint256"
        }
      ],
      "payable": false,
      "stateMutability": "view",
      "type": "function"
    },
    {
      "constant": true,
      "inputs": [
        {
          "name": "payee",
          "type": "address"
        }
      ],
      "name": "lockedBalanceOf",
      "outputs": [
        {
          "name": "",
          "type": "uint256"
        }
      ],
      "payable": false,
      "stateMutability": "view",
      "type": "function"
    },
    {
      "constant": true,
      "inputs": [
        {
          "name": "payee",
          "type": "address"
        }
      ],
      "name": "availableBalance",
      "outputs": [
        {
          "name": "",
          "type": "uint256"
        }
      ],
      "payable": false,
      "stateMutability": "view",
      "type": "function"
    },
    {
      "constant": true,
      "inputs": [
        {
          "name": "payee",
          "type": "address"
        }
      ],
      "name": "calcVotingWeight",
      "outputs": [
        {
          "name": "",
          "type": "uint256"
        }
      ],
      "payable": false,
      "stateMutability": "view",
      "type": "function"
    },
    {
      "constant": true,
      "inputs": [
        {
          "name": "payee",
          "type": "address"
        },
        {
          "name": "factor",
          "type": "uint32"
        }
      ],
      "name": "calcVotingWeightWithScaleFactor",
      "outputs": [
        {
          "name": "",
          "type": "uint256"
        }
      ],
      "payable": false,
      "stateMutability": "view",
      "type": "function"
    },
    {
      "constant": false,
      "inputs": [],
      "name": "deposit",
      "outputs": [],
      "payable": true,
      "stateMutability": "payable",
      "type": "function"
    },
    {
      "constant": false,
      "inputs": [
        {
          "name": "amount",
          "type": "uint256"
        }
      ],
      "name": "withdraw",
      "outputs": [],
      "payable": false,
      "stateMutability": "nonpayable",
      "type": "function"
    },
    {
      "constant": false,
      "inputs": [
        {
          "name": "payee",
          "type": "address"
        },
        {
          "name": "lockAmount",
          "type": "uint256"
        }
      ],
      "name": "lock",
      "outputs": [],
      "payable": false,
      "stateMutability": "nonpayable",
      "type": "function"
    },
    {
      "constant": false,
      "inputs": [
        {
          "name": "payee",
          "type": "address"
        },
        {
          "name": "unlockAmount",
          "type": "uint256"
        }
      ],
      "name": "unlock",
      "outputs": [],
      "payable": false,
      "stateMutability": "nonpayable",
      "type": "function"
    }
  ],
  "bytecode": "0x60806040527f476f7665726e616e6365436f6e7472616374000000000000000000000000000060025534801561003457600080fd5b50604051602080610e87833981016040819052905160008054600160a060020a03191633178082559192600160a060020a0392909216917f8be0079c531659141344cd1fd0a4f28419497f9722a3daafe3b4186f6b6457e0908290a3600160035560006006556100ac816401000000006100b2810204565b50610101565b6100c36401000000006100f0810204565b15156100ce57600080fd5b60018054600160a060020a031916600160a060020a0392909216919091179055565b600054600160a060020a0316331490565b610d77806101106000396000f3006080604052600436106100e55763ffffffff7c0100000000000000000000000000000000000000000000000000000000600035041663282d3fdf81146100ea5780632e1a7d4d14610110578063393631121461012857806359355736146101595780636c78d2cf1461018c57806370a08231146101a1578063715018a6146101c25780637d77a0eb146101d75780637eee288d14610201578063884d97a7146102255780638da5cb5b146102465780638f32d59b1461025b578063a0821be314610284578063a91ee0dc146102a5578063d0e30db0146102c6578063f2fde38b146102ce575b600080fd5b3480156100f657600080fd5b5061010e600160a060020a03600435166024356102ef565b005b34801561011c57600080fd5b5061010e6004356105bd565b34801561013457600080fd5b5061013d610719565b60408051600160a060020a039092168252519081900360200190f35b34801561016557600080fd5b5061017a600160a060020a0360043516610728565b60408051918252519081900360200190f35b34801561019857600080fd5b5061017a610743565b3480156101ad57600080fd5b5061017a600160a060020a0360043516610749565b3480156101ce57600080fd5b5061010e610764565b3480156101e357600080fd5b5061017a600160a060020a036004351663ffffffff602435166107ce565b34801561020d57600080fd5b5061010e600160a060020a036004351660243561084d565b34801561023157600080fd5b5061017a600160a060020a0360043516610a74565b34801561025257600080fd5b5061013d610a81565b34801561026757600080fd5b50610270610a90565b604080519115158252519081900360200190f35b34801561029057600080fd5b5061017a600160a060020a0360043516610aa1565b3480156102b157600080fd5b5061010e600160a060020a0360043516610ad4565b61010e610b16565b3480156102da57600080fd5b5061010e600160a060020a0360043516610c2d565b600154600254604080517f0d2020dd0000000000000000000000000000000000000000000000000000000081526004810192909252513392600160a060020a031691630d2020dd9160248083019260209291908290030181600087803b15801561035857600080fd5b505af115801561036c573d6000803e3d6000fd5b505050506040513d602081101561038257600080fd5b5051600160a060020a0316146103e2576040805160e560020a62461bcd02815260206004820152600d60248201527f4e6f205065726d697373696f6e00000000000000000000000000000000000000604482015290519081900360640190fd5b600160a060020a038216600090815260046020526040902054811115610478576040805160e560020a62461bcd02815260206004820152603060248201527f4c6f636b20616d6f756e742073686f756c6420626520657175616c206f72206c60448201527f657373207468616e2062616c616e636500000000000000000000000000000000606482015290519081900360840190fd5b8061048283610aa1565b10156104fe576040805160e560020a62461bcd02815260206004820152602760248201527f496e73756666696369656e742062616c616e636520746861742063616e20626560448201527f206c6f636b656400000000000000000000000000000000000000000000000000606482015290519081900360840190fd5b600160a060020a038216600090815260056020526040902054610527908263ffffffff610c4916565b600160a060020a038316600090815260056020526040902055600654610553908263ffffffff610c4916565b600655600160a060020a0382166000818152600460205260409020547f44cebfefa4561bee5b61d675ccfd8dc9969fff9cc15e7a4eccccd62af94f9c1190839061059c86610aa1565b60408051938452602084019290925282820152519081900360600190a25050565b60038054600101908190556105d133610aa1565b82111561064e576040805160e560020a62461bcd02815260206004820152603460248201527f576974686472617720616d6f756e742073686f756c6420626520657175616c2060448201527f6f72206c657373207468616e2062616c616e6365000000000000000000000000606482015290519081900360840190fd5b3360009081526004602052604090205461066e908363ffffffff610c6616565b33600081815260046020526040808220939093559151909184156108fc02918591818181858888f193505050501580156106ac573d6000803e3d6000fd5b50336000818152600460205260409020547f204fccf0d92ed8d48f204adb39b2e81e92bad0dedb93f5716ca9478cfb57de009084906106ea84610aa1565b60408051938452602084019290925282820152519081900360600190a2600354811461071557600080fd5b5050565b600154600160a060020a031681565b600160a060020a031660009081526005602052604090205490565b60025481565b600160a060020a031660009081526004602052604090205490565b61076c610a90565b151561077757600080fd5b60008054604051600160a060020a03909116907f8be0079c531659141344cd1fd0a4f28419497f9722a3daafe3b4186f6b6457e0908390a36000805473ffffffffffffffffffffffffffffffffffffffff19169055565b600160a060020a03821660009081526005602052604081205415806107f7575063ffffffff8216155b1561080457506000610847565b600654600160a060020a03841660009081526005602052604090205461084491906108389063ffffffff80871690610c7d16565b9063ffffffff610cab16565b90505b92915050565b600154600254604080517f0d2020dd0000000000000000000000000000000000000000000000000000000081526004810192909252513392600160a060020a031691630d2020dd9160248083019260209291908290030181600087803b1580156108b657600080fd5b505af11580156108ca573d6000803e3d6000fd5b505050506040513d60208110156108e057600080fd5b5051600160a060020a031614610940576040805160e560020a62461bcd02815260206004820152600d60248201527f4e6f205065726d697373696f6e00000000000000000000000000000000000000604482015290519081900360640190fd5b600160a060020a0382166000908152600560205260409020548111156109d6576040805160e560020a62461bcd02815260206004820152603960248201527f556e6c6f636b20616d6f756e742073686f756c6420626520657175616c206f7260448201527f206c657373207468616e2062616c616e6365206c6f636b656400000000000000606482015290519081900360840190fd5b600160a060020a0382166000908152600560205260409020546109ff908263ffffffff610c6616565b600160a060020a038316600090815260056020526040902055600654610a2b908263ffffffff610c6616565b600655600160a060020a0382166000818152600460205260409020547f5245d528087a96a64f4589a764f00061e4671eab90cb1e019b1a5b24b2e4c2a890839061059c86610aa1565b60006108478260646107ce565b600054600160a060020a031690565b600054600160a060020a0316331490565b600160a060020a03811660009081526005602090815260408083205460049092528220546108479163ffffffff610c6616565b610adc610a90565b1515610ae757600080fd5b6001805473ffffffffffffffffffffffffffffffffffffffff1916600160a060020a0392909216919091179055565b600380546001019081905560003411610b9f576040805160e560020a62461bcd02815260206004820152602a60248201527f4465706f73697420616d6f756e742073686f756c64206265206772656174657260448201527f207468616e207a65726f00000000000000000000000000000000000000000000606482015290519081900360840190fd5b33600090815260046020526040902054610bbf903463ffffffff610c4916565b336000818152600460205260409020829055907fb4caaf29adda3eefee3ad552a8e85058589bf834c7466cae4ee58787f70589ed903490610bff84610aa1565b60408051938452602084019290925282820152519081900360600190a26003548114610c2a57600080fd5b50565b610c35610a90565b1515610c4057600080fd5b610c2a81610cce565b600082820183811015610c5b57600080fd5b8091505b5092915050565b60008083831115610c7657600080fd5b5050900390565b600080831515610c905760009150610c5f565b50828202828482811515610ca057fe5b0414610c5b57600080fd5b600080808311610cba57600080fd5b8284811515610cc557fe5b04949350505050565b600160a060020a0381161515610ce357600080fd5b60008054604051600160a060020a03808516939216917f8be0079c531659141344cd1fd0a4f28419497f9722a3daafe3b4186f6b6457e091a36000805473ffffffffffffffffffffffffffffffffffffffff1916600160a060020a03929092169190911790555600a165627a7a7230582026b1bcd1c406be5a2202d7b31381e6ca1c16138235de0a555432d26a099d414f0029",
  "source": "pragma solidity ^0.4.24;\n\nimport \"openzeppelin-solidity/contracts/math/SafeMath.sol\";\nimport \"openzeppelin-solidity/contracts/utils/ReentrancyGuard.sol\";\nimport \"./GovChecker.sol\";\n\n\ncontract Staking is GovChecker, ReentrancyGuard {\n    using SafeMath for uint256;\n\n    mapping(address => uint256) private _balance;\n    mapping(address => uint256) private _lockedBalance;\n    uint256 private _totalLockedBalance;\n    \n    event Staked(address indexed payee, uint256 amount, uint256 total, uint256 available);\n    event Unstaked(address indexed payee, uint256 amount, uint256 total, uint256 available);\n    event Locked(address indexed payee, uint256 amount, uint256 total, uint256 available);\n    event Unlocked(address indexed payee, uint256 amount, uint256 total, uint256 available);\n\n    constructor(address _registry) public {\n        _totalLockedBalance = 0;\n        setRegistry(_registry);\n    }\n\n    function balanceOf(address payee) public view returns (uint256) {\n        return _balance[payee];\n    }\n\n    function lockedBalanceOf(address payee) public view returns (uint256) {\n        return _lockedBalance[payee];\n    }\n\n    function availableBalance(address payee) public view returns (uint256) {\n        return _balance[payee].sub(_lockedBalance[payee]);\n    }\n\n    /**\n    * @dev Calculate voting weight which range between 0 and 100.\n    * @param payee The address whose funds were locked.\n    */\n    function calcVotingWeight(address payee) public view returns (uint256) {\n        return calcVotingWeightWithScaleFactor(payee, 1e2);\n    }\n\n    /**\n    * @dev Calculate voting weight with a scale factor.\n    * @param payee The address whose funds were locked.\n    * @param factor The scale factor for weight. For instance:\n    *               if 1e1, result range is between 0 ~ 10\n    *               if 1e2, result range is between 0 ~ 100\n    *               if 1e3, result range is between 0 ~ 1000\n    */\n    function calcVotingWeightWithScaleFactor(address payee, uint32 factor) public view returns (uint256) {\n        if (_lockedBalance[payee] == 0 || factor == 0) return 0;\n        return _lockedBalance[payee].mul(factor).div(_totalLockedBalance);\n    }\n\n    function () external payable {\n        revert();\n    }\n\n    /**\n    * @dev Deposit from a sender.\n    */\n    function deposit() external nonReentrant payable {\n        require(msg.value > 0, \"Deposit amount should be greater than zero\");\n\n        _balance[msg.sender] = _balance[msg.sender].add(msg.value);\n\n        emit Staked(msg.sender, msg.value, _balance[msg.sender], availableBalance(msg.sender));\n    }\n\n    /**\n    * @dev Withdraw for a sender.\n    * @param amount The amount of funds will be withdrawn and transferred to.\n    */\n    function withdraw(uint256 amount) external nonReentrant {\n        require(amount <= availableBalance(msg.sender), \"Withdraw amount should be equal or less than balance\");\n\n        _balance[msg.sender] = _balance[msg.sender].sub(amount);\n        msg.sender.transfer(amount);\n\n        emit Unstaked(msg.sender, amount, _balance[msg.sender], availableBalance(msg.sender));\n    }\n\n    /**\n    * @dev Lock fund\n    * @param payee The address whose funds will be locked.\n    * @param lockAmount The amount of funds will be locked.\n    */\n    function lock(address payee, uint256 lockAmount) external onlyGov {\n        require(_balance[payee] >= lockAmount, \"Lock amount should be equal or less than balance\");\n        require(availableBalance(payee) >= lockAmount, \"Insufficient balance that can be locked\");\n\n        _lockedBalance[payee] = _lockedBalance[payee].add(lockAmount);\n        _totalLockedBalance = _totalLockedBalance.add(lockAmount);\n\n        emit Locked(payee, lockAmount, _balance[payee], availableBalance(payee));\n    }\n\n    /**\n    * @dev Unlock fund\n    * @param payee The address whose funds will be unlocked.\n    * @param unlockAmount The amount of funds will be unlocked.\n    */\n    function unlock(address payee, uint256 unlockAmount) external onlyGov {\n        require(_lockedBalance[payee] >= unlockAmount, \"Unlock amount should be equal or less than balance locked\");\n\n        _lockedBalance[payee] = _lockedBalance[payee].sub(unlockAmount);\n        _totalLockedBalance = _totalLockedBalance.sub(unlockAmount);\n\n        emit Unlocked(payee, unlockAmount, _balance[payee], availableBalance(payee));\n    }\n\n}",
  "sourcePath": "/Users/jeong-go-eun/Desktop/metabolics/contracts/Staking.sol",
  "compiler": {
    "name": "solc",
    "version": "0.4.24+commit.e67f0147.Emscripten.clang"
  },
  "schemaVersion": "2.0.1",
  "updatedAt": "2019-01-28T08:38:53.115Z"
}